:020000040000FA
:04000000BBEF2DF035
:1008000000222A2B2C3A3B3C3D3E3F5B5D7C7F0027
:100810004265654465762E747874000046C0D9FF41
:1008200047C0DAFF000EDE6E000EDD6E48C001F03C
:1008300049C002F0CBEC28F001C080F002C081F08A
:10084000000181AF02D00B0E1200D8908035D96E16
:100850008135DA6EE00ED926000EDA22DECF98F06E
:10086000DDCF99F098519911D8A402D00C0E120046
:1008700046C0D9FF47C0DAFF98C0DEFF99C0DDFF50
:1008800098C0D9FF99C0DAFFDF50D8B415D020EE58
:1008900001F09851D9269951DA22DF50F2EC2EF06E
:1008A00000018C6F8CB108D04A50D8A48CA502D01E
:1008B0000A0E1200000E120098C0D9FF99C0DAFF8C
:1008C000000EDF6E20EE01F09851D9269951DA2200
:1008D00080C0DFFF20EE01F09851D9269951DA222D
:1008E000DF50BFEC20F000018C6F8CA102D0030E12
:1008F00012004A50D8B402D08CB5DAD7000E916FEE
:10090000000E926F000E936F000E946F98C03CF033
:1009100099C03DF0000E3E6E000E3F6E000E406E20
:10092000000E416EE1EC27F00001976F9705D8A407
:10093000AED0000E966F000E956F96515AE1040EE0
:10094000955DD8B056D095C04BF096C04CF04B3A60
:100950004C3AF00E4C164B500F0B4C12F00E4B163F
:1009600098C04DF099C04EF04B504D264C504E2241
:10097000EC0E4D247A6F010E4E207B6F20EE04F0BA
:100980007A51D9267B51DA22DF50D8A409D0000E43
:10099000706F000E716F000E726F000E736F0ED0CD
:1009A00020EE08F07A51D9267B51DA22DECF70F0A2
:1009B000DECF71F0DECF72F0DECF73F0600E4B6EE3
:1009C000000E4C6ED8909535D96E9635DA6ED8906B
:1009D000D936DA364B50D9264C50DA2270C0DEFFB9
:1009E00071C0DEFF72C0DEFF73C0DEFF954B962B39
:1009F000A4D7000E966F000E956F95519611D8B43E
:100A000003D09507D8A09607600E4B6E000E4C6E73
:100A1000D8909535D96E9635DA6ED890D936DA36C3
:100A20004B50D9264C50DA22DECF91F0DECF92F037
:100A3000DECF93F0DECF94F0915192119311941187
:100A4000D8A405D0000E756F020E746F13D098C035
:100A50003CF099C03DF091C03EF092C03FF093C091
:100A600040F094C041F0E1EC27F04B6E4B50000198
:100A7000746F756B74C097F09751D8B408D0954BCC
:100A8000962B965104E1040E955DD8A0BDD7030EB8
:100A90009719D8A402D0010E12009751D8B402D0F1
:100AA0000D0E120020EE39F09851D9269951DA2214
:100AB000DE50F6E1020EDE18D8A4F2D720EE44F0A4
:100AC0009851D9269951DA22DECF4BF0DDCF4CF088
:100AD0004BC08DF04CC08EF08F6B906B8D518E1192
:100AE0008F119011D8A40ED020EE52F09851D92633
:100AF0009951DA22DECF8DF0DECF8EF0DECF8FF08F
:100B0000DECF90F020EE16F09851D9269951DA22D6
:100B10008DC0DEFF8EC0DEFF8FC0DEFF90C0DEFF27
:100B200020EE3EF09851D9269951DA2210EE03F0CA
:100B30009851E1269951E222DFCFE7FF20EE03F042
:100B40009851D9269951DA22DE04D8B40AD020EE81
:100B500003F09851D9269951DA22020EDE18D8A452
:100B60009FD78DC001F08EC002F08FC003F090C0FF
:100B700004F020EE03F09851D9269951DA22DF5083
:100B80004B6E4B50056E066A076A086A90EC2DF0B2
:100B900001C08DF002C08EF003C08FF004C090F051
:100BA000000120EE3BF09851D9269951DA2210EE3F
:100BB00002F09851E1269951E222DFCFE7FF20EEC3
:100BC00002F09851D9269951DA22DF50D8B468D76B
:100BD000FF0E4B6EFF0E4C6E20EE02F09851D926A0
:100BE0009951DA22DF504D6E4E6A4B504D264C50D3
:100BF0004E2220EE02F09851D9269951DA22DF5088
:100C00004F6E4F504D16000E4E164D504E10D8A43C
:100C100047D720EE3FF09851D9269951DA2210EEAD
:100C200008F09851E1269951E222DECFE6FFDDCFB0
:100C3000E5FF20EE08F09851D9269951DA22DECF4F
:100C40004BF0DDCF4CF00F0E4B16000E4C164B50F8
:100C50004C10D8A425D720EE41F09851D9269951AF
:100C6000DA22DECF4BF0DDCF4CF04BC084F04CC02D
:100C700085F0866B876B8451851186118711D8A406
:100C80000ED020EE4EF09851D9269951DA22DECFBF
:100C900084F0DECF85F0DECF86F0DECF87F020EE69
:100CA0003CF09851D9269951DA22DECF82F0DDCF7F
:100CB00083F082518311D8B4F3D620EE08F0985116
:100CC000D9269951DA22DECF4BF0DDCF4CF0040E5D
:100CD0004D6ED8904C324B324D2EFBD782514B2467
:100CE0004E6E83514C204F6E506AD8B0502A516AD4
:100CF0008D514E247C6F8E514F207D6F8F5150202F
:100D00007E6F905151207F6F7C51845D7D5185595C
:100D10007E5186597F518759D8A0C2D67C51845DB7
:100D2000016E7D518559026E7E518659036E7F5149
:100D30008759046E20EE02F09851D9269951DA2293
:100D4000DF504B6E4B50056E066A076A086A66EC08
:100D50002CF001C088F002C089F003C08AF004C002
:100D60008BF00001885189118A118B11D8B498D663
:100D7000010E976F8B518A1106E1F60E885D0F0EFA
:100D80008959D8A002D0020E976F8B518A1106E1C3
:100D9000F60E885DFF0E8959D8A002D0030E976F1A
:100DA000020E88254B6E000E89214C6E000E8A21A2
:100DB0004D6E000E8B214E6E20EE12F09851D9260A
:100DC0009951DA224BC0DEFF4CC0DEFF4DC0DEFF82
:100DD0004EC0DEFF20EE1AF09851D9269951DA2242
:100DE00091C0DEFF92C0DEFF93C0DEFF94C0DEFF45
:100DF000825191254B6E835192214C6E000E9321AE
:100E00004D6E000E94214E6E20EE1EF09851D926A4
:100E10009951DA224BC0DEFF4CC0DEFF4DC0DEFF31
:100E20004EC0DEFF7C5191254B6E7D5192214C6E60
:100E30007E5193214D6E7F5194214E6E20EE26F00F
:100E40009851D9269951DA224BC0DEFF4CC0DEFF03
:100E50004DC0DEFF4EC0DEFF030E9719D8A43DD073
:100E600020EE08F09851D9269951DA22DE50DE1092
:100E7000D8A416D620EE5AF09851D9269951DA22E4
:100E800010EE22F09851E1269951E222DECFE6FFE2
:100E9000DECFE6FFDECFE6FFDECFE6FF20EE12F08C
:100EA0009851D9269951DA22DECF4BF0DECF4CF0A3
:100EB000DECF4DF0DECF4EF0020ED8904B364C36E2
:100EC0004D364E36E82EF9D74BC076F04CC077F051
:100ED0004DC078F04EC079F091D020EE08F09851D6
:100EE000D9269951DA22DE50DE10D8B4D9D520EEB9
:100EF0001EF09851D9269951DA22DECF4BF0DECF81
:100F00004CF0DECF4DF0DECF4EF08D514B244F6EC6
:100F10008E514C20506E8F514D20516E90514E206D
:100F2000526E20EE22F09851D9269951DA224FC004
:100F3000DEFF50C0DEFF51C0DEFF52C0DEFF020EFA
:100F40009719D8B444D020EE12F09851D92699516F
:100F5000DA22DECF4BF0DECF4CF0DECF4DF0DECF2D
:100F60004EF0010E4B144F6E000E4C14506E000EDE
:100F70004D14516E000E4E14526E20EE12F0985128
:100F8000D9269951DA22DECF01F0DECF02F0DECF92
:100F900003F0DECF04F0030E056E000E066E000EA9
:100FA000076E000E086E90EC2DF0D89004320332DC
:100FB000023201324F5001240001766F505002205E
:100FC000776F51500320786F5250042016D020EED6
:100FD00012F09851D9269951DA22DECF4BF0DECFAC
:100FE0004CF0DECF4DF0DECF4EF0D8904B34766F24
:100FF0004C34776F4D34786F4E34796FFF0E762511
:101000004B6E010E77214C6E000E78214D6E000E56
:1010100079214E6E0A0E05D0D8904E324D324C32A8
:101020004B32E82EF9D720EE16F09851D926995177
:10103000DA224B50DE5C4C50DE584D50DE584E509C
:10104000DE58D8A02DD520EE0EF09851D926995112
:10105000DA22FF0EDE6EFF0EDE6EFF0EDE6EFF0E7C
:10106000DD6EDD52DD5210EE0AF09851E126995105
:10107000E222DECFE6FFDECFE6FFDECFE6FFDECF09
:10108000E6FF20EE05F09851D9269951DA22800E1C
:10109000DF6E030E9719D8A483D020EE5EF098512E
:1010A000D9269951DA22DE04DE10D8A479D098C06E
:1010B00031F099C032F0010E9125336E000E92216D
:1010C000346E000E9321356E000E9421366E87EC3F
:1010D0002BF00009D8A464D0000120EE05F098514F
:1010E000D9269951DA22000EDF6E22EE2CF09851AB
:1010F000D9269951DA22550EDE1852E1AA0EDE18D1
:10110000D8A44ED020EE2EF09851D9269951DA224B
:10111000520EDE1845E1520EDE1842E1610EDE1875
:101120003FE1410EDE18D8A43BD022EE12F09851D8
:10113000D9269951DA22720EDE1832E1720EDE18CB
:101140002FE1410EDE182CE1610EDE18D8A428D064
:1011500022EE16F09851D9269951DA2210EE0EF0AF
:101160009851E1269951E222DECFE6FFDECFE6FF7D
:10117000DECFE6FFDECFE6FF22EE1AF09851D92649
:101180009951DA2210EE0AF09851E1269951E222A3
:10119000DECFE6FFDECFE6FFDECFE6FFDECFE6FF07
:1011A00098C0D9FF99C0DAFF97C0DFFF0001DE4B7E
:1011B000DF2B20EE06F09851D9269951DA22DEC0B5
:1011C000DEFFDFC0DDFF5AEF04F073C087F074C0AC
:1011D00088F075C089F078C0D9FF79C0DAFF000EB9
:1011E000DE6E000EDD6E71C002F072C003F0DAEC4C
:1011F0002BF00001866F8651D8A4120020EE05F076
:101200007151D9267251DA22DF50D8A4120020EE93
:1012100004F07151D9267251DA22DFA2120020EEB9
:1012200006F07151D9267251DA2210EE06F0715192
:10123000E1267251E222E6CF7EF0E6CF7FF0E6CFE4
:1012400080F0E6CF81F076517E25826F77517F2145
:10125000836F000E8021846F000E8121856FDE5028
:10126000825DDE508359DE508459DE508559D8B0F6
:1012700034D3000E776F000E766F2FD320EE06F07A
:101280007151D9267251DA22FF0EDE147A6F010EE7
:10129000DE147B6F000EDE147C6F000EDE147D6F9B
:1012A0007A517B117C117D11D8A46FD220EE06F00B
:1012B0007151D9267251DA22DECF7AF0DECF7BF07F
:1012C000DECF7CF0DECF7DF00A0E05D0D8907D33E6
:1012D0007C337B337A33E82EF9D771C0D9FF72C0E3
:1012E000DAFF10EE02F0DE50E126DD50E222E75098
:1012F0007E6F7E057A158A6F8A51D8A4A3D020EE1E
:1013000006F07151D9267251DA22DE50DE10DE105D
:10131000DE10D8A427D020EE0EF07151D9267251DC
:10132000DA22DECF91F0DECF92F0DECF93F0DECF87
:1013300094F09151921193119411D8A433D071C0AB
:10134000D9FF72C0DAFFDECF57F0DDCF58F0000EC4
:10135000596E000E5A6E000E5B6E000E5C6E57ECFE
:101360001BF018D071C0D9FF72C0DAFFDECF57F082
:10137000DDCF58F020EE12F07151D9267251DA22E9
:10138000DECF59F0DECF5AF0DECF5BF0DECF5CF07F
:1013900057EC1BF057C091F058C092F059C093F031
:1013A0005AC094F000019151921193119411D8B444
:1013B00098D29105921193119411D8A409D020EEDE
:1013C00005F07151D9267251DA22020EDF6E120039
:1013D000912910E192290EE193290CE19429D8A4D6
:1013E00009D020EE05F07151D9267251DA22010E92
:1013F000DF6E120020EE12F07151D9267251DA22FE
:1014000091C0DEFF92C0DEFF93C0DEFF94C0DEFF1E
:1014100020EE0EF07151D9267251DA22DE50DE1024
:10142000DE10DE10D8A40ED020EE0EF07151D926B9
:101430007251DA2291C0DEFF92C0DEFF93C0DEFF60
:1014400094C0DEFF20EE16F07151D9267251DA22D7
:1014500071C0E1FF72C0E2FF00EE2AF0E650E9261B
:10146000E550EA22DE50EE1821E1DE50EE181EE1D2
:10147000DE50EE181BE1DE50EE18D8A417D071C074
:10148000D9FF72C0DAFFDECF1CF0DDCF1DF09DEC7E
:1014900022F00009D8B40AD0000120EE05F0715105
:1014A000D9267251DA22010EDF6E120071C0D9FF07
:1014B00072C0DAFFDECF0DF0DDCF0EF0000120EEBE
:1014C00012F07151D9267251DA22DECF0FF0DECF41
:1014D00010F0DECF11F0DECF12F0D2EC2AF00DC00A
:1014E0008DF00EC08EF00FC08FF010C090F0000194
:1014F0008D518E118F119011D8A409D020EE05F0D6
:101500007151D9267251DA22020EDF6E12008A5111
:101510008D27000E8E238F23902376C07AF077C01C
:101520007BF0090E7C6FD8907B337A337C2FFBD70E
:101530007AC08BF07BC08CF08B518C11D8B4D7D093
:101540008A518B257A6F000E8C217B6F71C0D9FF79
:1015500072C0DAFF10EE02F0DE50E126DD50E2222A
:10156000E7507C6F7D6B7A517C5D7B517D59D8B0A3
:1015700012D071C0D9FF72C0DAFF10EE02F0DE5057
:10158000E126DD50E222E7507A6F8A517A5D8B6F57
:101590008C6BD8A08C0787C011F088C012F089C06E
:1015A00013F08DC014F08EC015F08FC016F090C0EF
:1015B00017F08BC018F08CC019F071C0D9FF72C041
:1015C000DAFF10EE01F0DE50E126DD50E222E750B6
:1015D000E7EC25F00009D8B40AD0000120EE05F0B0
:1015E0007151D9267251DA22010EDF6E120000010C
:1015F0008B517A6F8C517B6F7C6B7D6B71C0D9FF87
:1016000072C0DAFF10EE2AF0DE50E126DD50E22251
:10161000E6CF7EF0E6CF7FF0E6CF80F0E6CF81F038
:101620008D517E5D826F8E517F59836F8F518059AE
:10163000846F90518159856F7A51825D7B518359B6
:101640007C5184597D518559D8B041D071C0D9FFA2
:1016500072C0DAFFDECF7AF0DDCF7BF02E0E7A2576
:10166000016E000E7B21026E71C0D9FF72C0DAFFDD
:1016700010EE2AF0DE50E126DD50E222E6CF7CF0CB
:10168000E5CF7DF08D517C5F8E517D5B090ED8904A
:101690007C377D37E82EFBD77C518725036E7D5143
:1016A0008821046E000E8921056E020E076E000E61
:1016B000066EA4EC29F071C0D9FF72C0DAFF10EEFB
:1016C00004F0DE50E126DD50E222000EE76E8BC012
:1016D0007AF08CC07BF0090ED89000017A377B3706
:1016E000E82EFAD77AC095F07BC096F0D4D020EEE1
:1016F0000AF07151D9267251DA2210EE06F07151BA
:10170000E1267251E222DE50E65CDE50E658DE5001
:10171000E658DE50E658D8A029D071C0D9FF72C073
:10172000DAFFDECF1CF0DDCF1DF09DEC22F00009CA
:10173000D8B40AD0000120EE05F07151D9267251BB
:10174000DA22010EDF6E120071C0D9FF72C0DAFF1B
:1017500010EE2AF0DE50E126DD50E2228DC0E6FFD9
:101760008EC0E6FF8FC0E6FF90C0E6FF000120EECE
:1017700016F07151D9267251DA228DC0DEFF8EC06B
:10178000DEFF8FC0DEFF90C0DEFFFF0E7A6F010E1E
:101790007B6F20EE06F07151D9267251DA22DECF2E
:1017A0007CF0DDCF7DF07A517C177B517D177C5129
:1017B0000008956F7D51D8A0E82A0208966F9551D0
:1017C000765D96517759D8B004D076C095F077C041
:1017D00096F071C0D9FF72C0DAFFDECF31F0DDCFF5
:1017E00032F020EE16F07151D9267251DA22DECF96
:1017F00033F0DECF34F0DECF35F0DECF36F087ECDD
:101800002BF00009D8B40AD0000120EE05F0715188
:10181000D9267251DA22010EDF6E1200FF0E00018E
:101820007A6F010E7B6F20EE06F07151D92672514E
:10183000DA22DECF7CF0DDCF7DF07A517C177B5150
:101840007D1771C0D9FF72C0DAFFDECF7EF0DDCF29
:101850007FF07C517E277D517F232E0E7E25016EE9
:10186000000E7F21026E87C003F088C004F089C09B
:1018700005F095C006F096C007F0A4EC29F071C001
:10188000D9FF72C0DAFF10EE04F0DE50E126DD5021
:10189000E222010EE76E95C0E8FF0001872796C09F
:1018A000E8FF8823000E892320EE06F07151D92627
:1018B0007251DA229551DE269651DE22000EDE228A
:1018C000DE2278C0D9FF79C0DAFF9551DE26965125
:1018D000DD229551765F9651775B76517711D8A4CA
:1018E000CDD420EE06F07151D9267251DA2210EED5
:1018F0000AF07151E1267251E222DE50E65CDE50C0
:10190000E658DE50E658DE50E658D8B014D020EE47
:1019100006F07151D9267251DA2210EE0AF0715197
:10192000E1267251E222DECFE6FFDECFE6FFDECF18
:10193000E6FFDECFE6FF20EE04F07151D9267251AA
:10194000DA22000EDB8A120071C002F072C003F0CE
:10195000DAEC2BF000018B6F8B51D8B402D08B5195
:10196000120020EE05F07151D9267251DA22DF50B3
:10197000D8B408D020EE05F07151D9267251DA2280
:10198000DF50120020EE0AF07151D9267251DA228E
:101990007351DE5C7451DE587551DE587651DE5855
:1019A000D8B016D020EE04F07151D9267251DA2247
:1019B000DFB20ED020EE0AF07151D9267251DA2230
:1019C000DECF73F0DECF74F0DECF75F0DECF76F0D1
:1019D00020EE06F07151D9267251DA22DECF87F05F
:1019E000DECF88F0DECF89F0DECF8AF0000E8C6F7C
:1019F000000E8D6F000E8E6F000E8F6F20EE06F0C2
:101A00007151D9267251DA228CC0DEFF8DC0DEFF03
:101A10008EC0DEFF8FC0DEFF735174117511761119
:101A2000D8B42DD271C0D9FF72C0DAFF10EE02F027
:101A3000DE50E126DD50E222E750776F77C078F084
:101A4000796B7A6B7B6B090ED890783779377A3758
:101A50007B37E82EF9D778C090F079C091F07AC042
:101A600092F07BC093F08751881189118A11D8B404
:101A700097D0FF0E7325016EFF0E7421026EFF0ECC
:101A80007521036EFF0E7621046E90C005F091C0A3
:101A900006F092C007F093C008F066EC2CF001C08D
:101AA00077F002C078F003C079F004C07AF0FF0E3E
:101AB00000018725016EFF0E8821026EFF0E89212D
:101AC000036EFF0E8A21046E90C005F091C006F0EF
:101AD00092C007F093C008F066EC2CF001500001B2
:101AE000775D025078590350795904507A59D8A03B
:101AF00057D0FF0E9025776FFF0E9121786FFF0E64
:101B00009221796FFF0E93217A6F771D7B6F781D7D
:101B10007C6F791D7D6F7A1D7E6FFF0E87257F6F2D
:101B2000FF0E8821806FFF0E8921816FFF0E8A21B1
:101B3000826F7B517F15836F7C518015846F7D513F
:101B40008115856F7E518215866F20EE06F07151EA
:101B5000D9267251DA2283C0DEFF84C0DEFF85C041
:101B6000DEFF86C0DEFF20EE06F07151D9267251ED
:101B7000DA22DE50735FDE50745BDE50755BDD5041
:101B8000765B20EE12F07151D9267251DA22DECF47
:101B900094F0DECF95F0DECF96F0DECF97F06ED0EA
:101BA00020EE0EF07151D9267251DA22DECF94F078
:101BB000DECF95F0DECF96F0DECF97F09451951101
:101BC00096119711D8A44CD071C0D9FF72C0DAFF1A
:101BD000DECF57F0DDCF58F0000E596E000E5A6E72
:101BE000000E5B6E000E5C6E57EC1BF057C094F05D
:101BF00058C095F059C096F05AC097F0000194056E
:101C0000951196119711D8A40AD020EE05F07151C4
:101C1000D9267251DA22020EDF6E020E12009429CA
:101C200011E195290FE196290DE19729D8A40AD051
:101C300020EE05F07151D9267251DA22010EDF6EC5
:101C4000010E120020EE0EF07151D9267251DA22E7
:101C500094C0DEFF95C0DEFF96C0DEFF97C0DEFFBA
:101C600020EE12F07151D9267251DA2294C0DEFFB3
:101C700095C0DEFF96C0DEFF97C0DEFF9451951140
:101C800096119711D8A497D0FAD020EE04F0715194
:101C9000D9267251DA22DFA22AD071C0D9FF72C0D0
:101CA000DAFFDECF57F0DDCF58F094C059F095C081
:101CB0005AF096C05BF097C05CF057EC1BF057C031
:101CC00094F058C095F059C096F05AC097F00001B2
:101CD0009451951196119711D8A423D090C073F008
:101CE00091C074F092C075F093C076F06ED071C060
:101CF000D9FF72C0DAFFDECF3CF0DDCF3DF094C0FB
:101D00003EF095C03FF096C040F097C041F012EC15
:101D100016F03CC094F03DC095F03EC096F03FC038
:101D200097F00001942907E1952905E1962903E13F
:101D30009729D8B47DD797519611951104E1020ED9
:101D4000945DD8A062D771C0D9FF72C0DAFF10EEDF
:101D500012F0DE50E126DD50E222E650945DE650BE
:101D60009559E6509659E6509759D8B04ED720EE7F
:101D700012F07151D9267251DA2294C0DEFF95C05B
:101D8000DEFF96C0DEFF97C0DEFF20EE06F0715149
:101D9000D9267251DA229051DE269151DE229251DB
:101DA000DE229351DE229051735F9151745B925108
:101DB000755B9351765B7351905D74519159755178
:101DC000925976519359D8A060D720EE06F0715100
:101DD000D9267251DA227351DE267451DE227551F2
:101DE000DE227651DE22FF0E7315776F010E741519
:101DF000786F000E7515796F000E76157A6F775132
:101E0000781179117A11D8B43AD071C0D9FF72C063
:101E1000DAFFDECF0DF0DDCF0EF094C00FF095C0ED
:101E200010F096C011F097C012F0D2EC2AF00DC05D
:101E30008CF00EC08DF00FC08EF010C08FF000013E
:101E40008C518D118E118F11D8B4DFD673C077F0FD
:101E500074C078F075C079F076C07AF00A0E05D0BB
:101E6000D8907A33793378337733E82EF9D77751AE
:101E70008C2778518D2379518E237A518F2320EE30
:101E800006F07151D9267251DA22FF0EDE14776FF7
:101E9000010EDE14786F000EDE14796F000EDE1472
:101EA0007A6F7751781179117A11D8B421D020EE58
:101EB00016F07151D9267251DA228C51DE180AE1DE
:101EC0008D51DE1807E18E51DE1804E18F51DE18C6
:101ED000D8B40ED020EE16F07151D9267251DA2204
:101EE0008CC0DEFF8DC0DEFF8EC0DEFF8FC0DEFF48
:101EF00020EE06F07151D9267251DA2210EE0AF066
:101F00007151E1267251E222DE50E65CDE50E65865
:101F1000DE50E658DE50E658D8B021D520EE06F067
:101F20007151D9267251DA2210EE0AF07151E12670
:101F30007251E222DECFE6FFDECFE6FFDECFE6FF24
:101F4000DECFE6FF20EE04F07151D9267251DA227D
:101F5000000EDB8A04D5316E12C038F013C039F0A0
:101F60003150D8B402D0040E1200010E366E0001BA
:101F7000F1A11BD2030E1200E3EC2EF00009D8B43D
:101F800035D2000E10D2000E0B6E000E0C6E000E3D
:101F90000D6E000E0E6E090E0BEC2EF00009D8A48B
:101FA00025D2210E026E000E036E000E056E100E7D
:101FB000046E27EC2DF00009D8B418D22144E8466D
:101FC000030BE806D8A44ED028C014F03F0E141618
:101FD00014C015F0166A176A186A16C018F015C0F2
:101FE00017F0166A156A29501A6E196A2A501B6E64
:101FF0001C6A19501B261A501C221B5015241D6EDA
:102000001C5016201E6E000E17201F6E000E18208A
:10201000206E010E1D24326E000E1E20336E000E47
:102020001F20346E000E2020356E32C014F033C0F5
:1020300015F034C016F035C017F00A0ED8901436DB
:10204000153616361736E82EF9D712C0D9FF13C049
:10205000DAFF14C0DEFF15C0DEFF16C0DEFF17C0BA
:10206000DEFF8FD7146A2BAE01D0142A010E14168E
:1020700026C015F00F0E15162A50030B020DF35053
:1020800015241424020F376E2750030B146E156AA3
:102090000A0ED89014361536E82EFBD72850166E47
:1020A000176AD89016361736D89016361736294440
:1020B000E846030B186E196A165018261750192295
:1020C0001450182615501922010E1826000E192238
:1020D00018C032F019C033F0346A356A37C014F0D2
:1020E000F70E142632C015F033C016F034C017F0C6
:1020F00035C018F0142A05D0D89015361636173684
:102100001836142EF9D73DD0E2A548D0000E0B6E3C
:10211000000E0C6E000E0D6E000E0E6E8D0E0BEC92
:102120002EF00009D8A462D1FF0E04EC2FF0210E8E
:10213000026E000E036E000E056E100E046E27EC8C
:102140002DF00009D8B452D1300E376E04D0FF0EF6
:1021500004EC2FF037063750D8A4F9D72BC014F071
:10216000143A0F0E1416100E156E166A176A186AB6
:10217000142A05D0D8901536163617361836142E70
:10218000F9D712C0D9FF13C0DAFF15C0DEFF16C0A1
:10219000DEFF17C0DEFF18C0DEFFF3D6000E0B6EA9
:1021A000000E0C6E000E0D6E000E0E6E090E0BEC86
:1021B0002EF00009D8A41AD1210E026E000E036E73
:1021C000000E056E100E046E27EC2DF00009D8B439
:1021D0000DD10001E2A32AD02EC014F0060E156E18
:1021E000D8901432152EFCD7FF0E14262B503F0B1F
:1021F000166E176AD89016361736186A2CAE01D0AC
:10220000182A010E181618501626000E1722010E55
:102210001626000E1722142A03D0D8901636173629
:10222000142EFBD71650196E175034D02BC014F053
:10223000D8901432D89014321F0E1416010E1424A4
:10224000016E026A000E02222C50030B156E166AF4
:10225000D89015361636D89015361636D8901536CD
:1022600016362CC017F0050E186ED8901732182E9F
:10227000FCD7070E171617501526000E1622010E52
:102280001524036E000E1620046EC0EC2EF00150D3
:10229000196E02501A6E1B6A1C6A12C0D9FF13C055
:1022A000DAFF19C0DEFF1AC0DEFF1BC0DEFF1CC054
:1022B000DEFF67D638C0D9FF39C0DAFFE2C0DFFFE2
:1022C00060D6000E0B6E000E0C6E000E0D6E000E32
:1022D0000E6E090E0BEC2EF00009D8A487D038C082
:1022E00002F039C003F0000E056E100E046E27ECEC
:1022F0002DF00009D8A445D679D0000E0B6E000E43
:102300000C6E000E0D6E000E0E6E0A0E0BEC2EF013
:102310000009D8A46BD038C002F039C003F0000E19
:10232000056E100E046E27EC2DF0E3D7000E0B6E39
:10233000000E0C6E000E0D6E000E0E6E3A0E0BECC3
:102340002EF00009D8A452D0040E376E0BD0FF0E29
:1023500004EC2FF038C0D9FF39C0DAFFDF6E384AFD
:10236000392A37063750D8B40CD6F1D7000E0B6E89
:10237000000E0C6E000E0D6E000E0E6E8D0E0BEC30
:102380002EF00009D8A432D0FF0E04EC2FF038C094
:1023900002F039C003F0000E056E400E046E27EC0B
:1023A0002DF0A7D7040E366E21D01150146E156A89
:1023B0001550000AD8A4F6D71450000AD8B4DCD5BA
:1023C000010AD8B4E0D5020AD8B49ED6090AD8B416
:1023D00071D7010AD8B475D7070AD8B48ED7010AC5
:1023E000D8B4A4D7030AD8B4C1D7DCD730EC2FF0C7
:1023F00036501200415040103F1004E1020E3E5C86
:10240000D8A010D020EE12F03C50D9263D50DA2250
:10241000DE503E5CDE503F58DE504058DE504158A2
:10242000D8A0E5D1020E546EF8D13EC052F03FC0A4
:1024300053F0D8905330476E5230466E4650522675
:10244000475053223CC031F03DC032F020EE1EF028
:102450003C50D9263D50DA22DECF46F0DECF47F0A1
:10246000DECF48F0DECF49F052C04AF053C04BF007
:10247000090E4C6ED8904B324A324C2EFBD74A5044
:102480004624336E4B504720346E000E4820356E84
:10249000000E4920366E87EC2BF0546E5450D8A4B1
:1024A000BCD1FF0E466E010E476E52C048F053C0BD
:1024B00049F046504816475049163CC04AF03DC0C6
:1024C0004BF048504A2649504B222E0E4A24556E56
:1024D000000E4B20566E524A532A3EB004D042C0E2
:1024E0004EF04F6A1AD04250466E476A463A473A13
:1024F000F00E471646500F0B4712F00E461655C009
:10250000D9FF56C0DAFFDF500F0B486E496A4650BC
:1025100048104E6E475049104F6E55C0D9FF56C0F7
:10252000DAFF4EC0DFFF20EE04F03C50D9263D50CC
:10253000DA22010EDF6E3CC031F03DC032F020EEF9
:102540001EF03C50D9263D50DA22DECF46F0DECFD9
:1025500047F0DECF48F0DECF49F052C04AF053C01A
:102560004BF0090E4C6ED8904B324A324C2EFBD7B2
:102570004A504624336E4B504720346E000E48209C
:10258000356E000E4920366E87EC2BF0546E545099
:10259000D8A443D1FF0E466E010E476E52C048F0DC
:1025A00053C049F046504816475049163CC04AF0BF
:1025B0003DC04BF048504A2649504B222E0E4A242B
:1025C000556E000E4B20566E3EB01BD042C046F0FA
:1025D00043C047F044C048F045C049F047C046F00A
:1025E00048C047F049C048F0496A0F0E461655C02A
:1025F000D9FF56C0DAFFDF50F00B46104A6E4A5042
:1026000012D042C046F043C047F044C048F045C035
:1026100049F0050E05D0D89049324832473246324B
:10262000E82EF9D74650506E516A55C0D9FF56C0B2
:10263000DAFF50C0DFFFD2D03CC031F03DC032F0F5
:1026400020EE1EF03C50D9263D50DA22DECF46F077
:10265000DECF47F0DECF48F0DECF49F03EC04AF093
:102660003FC04BF040C04CF041C04DF04BC04AF071
:102670004CC04BF04DC04CF04D6A46504A24336E6E
:1026800047504B20346E48504C20356E49504D20F9
:10269000366E87EC2BF0546E5450D8A4BED0FF0E8B
:1026A000466E010E476E3EC048F03FC049F0D890DC
:1026B0004836493646504816475049163CC04AF0FD
:1026C0003DC04BF048504A2649504B222E0E4A241A
:1026D000556E000E4B20566E55C0D9FF56C0DAFF1E
:1026E00042C0DEFF43C0DDFF79D03CC031F03DC0C9
:1026F00032F020EE1EF03C50D9263D50DA22DECFDB
:1027000046F0DECF47F0DECF48F0DECF49F03EC0E6
:102710004AF03FC04BF040C04CF041C04DF0080EB5
:1027200005D0D8904D324C324B324A32E82EF9D790
:1027300046504A24336E47504B20346E48504C204C
:10274000356E49504D20366E87EC2BF0546E545048
:10275000D8A463D0FF0E466E010E476E3EC048F00F
:102760003FC049F0D89048364936D8904836493667
:1027700046504816475049163CC04AF03DC04BF001
:1027800048504A2649504B222E0E4A24556E000EC0
:102790004B20566E55C0D9FF56C0DAFF000EDE142E
:1027A000466E000EDE14476E000EDE14486EF00E0C
:1027B000DE14496E465042124750431248504412AC
:1027C0004950451255C0D9FF56C0DAFF42C0DEFF5E
:1027D00043C0DEFF44C0DEFF45C0DEFF20EE04F054
:1027E0003C50D9263D50DA22010EDF6E16D03CC097
:1027F000D9FF3DC0DAFFDF50466E476A4750000AF6
:10280000D8A410D64650010AD8B40FD6030AD8B4BB
:1028100013D7010AD8B469D705D654501200000165
:1028200020EE04F07151D9267251DA22DECF75F014
:10283000DDCF76F0010E75257E6F000E76217F6F5D
:102840007E517F11D8B40CD020EE0EF07151D926F4
:102850007251DA22DE50DE10DE10DE10D8A402D073
:10286000040E12000F0E7E15756F000E7F15766F29
:1028700075517611D8A4A4D120EE0EF07151D9264D
:102880007251DA22DE2A000EDE22DE22DE2220EE65
:102890000AF07151D9267251DA22DE50DE10DE10B4
:1028A000DE10D8A411D071C0D9FF72C0DAFF10EECB
:1028B00008F0DE50E126DD50E222E6507E5DE65073
:1028C0007F59D8B0CDD77CD17EC075F07FC076F06F
:1028D000040E776FD89076337533772FFBD7FF0EC2
:1028E000786FFF0E796F71C0D9FF72C0DAFF10EEFA
:1028F00002F0DE50E126DD50E222E7507A6F7B6B7A
:1029000078517A2779517B2375517A1776517B1745
:102910007A517B11D8A454D171C0D9FF72C0DAFFAB
:10292000DECF3CF0DDCF3DF020EE0AF07151D9262C
:102930007251DA22DECF3EF0DECF3FF0DECF40F044
:10294000DECF41F012EC16F03CC080F03DC081F0CB
:102950003EC082F03FC083F000018351821181119B
:1029600006E1020E805DD8B002D0020E120080296E
:1029700009E1812907E1822905E18329D8A402D050
:10298000010E120071C0D9FF72C0DAFF10EE12F012
:10299000DE50E126DD50E222E650805DE6508159AE
:1029A000E6508259E6508359D8A0DBD07351741198
:1029B000D8B456D771C0D9FF72C0DAFFDECF57F056
:1029C000DDCF58F020EE0AF07151D9267251DA228B
:1029D000DECF59F0DECF5AF0DECF5BF0DECF5CF019
:1029E00057EC1BF057C080F058C081F059C082F0FE
:1029F0005AC083F000018051811182118311D8A443
:102A000002D0070E12008005811182118311D8B403
:102A1000ACD7802907E1812905E1822903E18329D7
:102A2000D8B4AED771C0D9FF72C0DAFFDECF1CF0C8
:102A3000DDCF1DF09DEC22F00009D8A4A1D771C014
:102A4000D9FF72C0DAFFDECF75F0DDCF76F02E0E43
:102A500000017525016E000E7621026E000E046ED7
:102A6000000E036E020E066E000E056E82EC2EF056
:102A700071C0D9FF72C0DAFFDECF0DF0DDCF0EF0EE
:102A800080C00FF081C010F082C011F083C012F03E
:102A9000D2EC2AF071C0D9FF72C0DAFF10EE2AF032
:102AA000DE50E126DD50E2220DC0E6FF0EC0E6FF5B
:102AB0000FC0E6FF10C0E6FF000E00017D6F000EA4
:102AC0007C6F2BD071C0D9FF72C0DAFF10EE04F01A
:102AD000DE50E126DD50E222010EE76E71C0D9FF23
:102AE00072C0DAFFDECF1CF0DDCF1DF09DEC22F0CE
:102AF0000009D8A445D771C0D9FF72C0DAFF10EE23
:102B00002AF0DE50E126DD50E222E62A000EE6221F
:102B1000E622E62200017C4B7D2B71C0D9FF72C0FA
:102B2000DAFF10EE02F0DE50E126DD50E222E7503F
:102B3000756F766B75517C5D76517D59D8A0C2D783
:102B400071C0D9FF72C0DAFF10EE2AF0DE50E12624
:102B5000DD50E2227C51E65E7D51E65A000EE65AD7
:102B6000E65A20EE0AF07151D9267251DA2280C05D
:102B7000DEFF81C0DEFF82C0DEFF83C0DEFF71C0EA
:102B8000D9FF72C0DAFFDECF0DF0DDCF0EF080C0CE
:102B90000FF081C010F082C011F083C012F0D2ECAF
:102BA0002AF0000120EE0EF07151D9267251DA227E
:102BB0000DC0DEFF0EC0DEFF0FC0DEFF10C0DEFF67
:102BC00020EE04F07151D9267251DA227EC0DEFF68
:102BD0007FC0DDFF0F0E7E15756F000E7F15766FBF
:102BE000050ED89075377637E82EFBD771C0D9FF20
:102BF00072C0DAFFDECF77F0DDCF78F0755177273E
:102C0000765178232E0E7727000E782320EE12F0CF
:102C10007151D9267251DA2277C0DEFF78C0DDFF0C
:102C2000000E1200415040103F1004E1020E3E5CC5
:102C3000D8A010D020EE12F03C50D9263D50DA2218
:102C4000DE503E5CDE503F58DE504058DE5041586A
:102C5000D8A008D0010E4D6E000E4E6E000E4F6EC5
:102C6000000E90D14D684E684F6850688DD13EC0BF
:102C700055F03FC056F0D8905630436E5530426EF6
:102C800042505526435056223CC031F03DC032F0F0
:102C900020EE1EF03C50D9263D50DA22DECF42F025
:102CA000DECF43F0DECF44F0DECF45F055C046F036
:102CB00056C047F0090E486ED89047324632482E2B
:102CC000FBD746504224336E47504320346E000EEB
:102CD0004420356E000E4520366E87EC2BF000093F
:102CE000D8A468D1FF0E426E010E436E55C044F069
:102CF00056C045F042504416435045163CC046F07D
:102D00003DC047F044504626455047222E0E4624EB
:102D1000D96E000E4720DA6EDF50486E4850516E73
:102D2000526A554A562A3CC031F03DC032F020EE7E
:102D30001EF03C50D9263D50DA22DECF42F0DECFE5
:102D400043F0DECF44F0DECF45F055C046F056C02C
:102D500047F0090E486ED89047324632482EFBD7CE
:102D600046504224336E47504320346E000E4420B8
:102D7000356E000E4520366E87EC2BF00009D8A486
:102D800019D1FF0E426E010E436E55C044F056C07D
:102D900045F042504416435045163CC046F03DC0F5
:102DA00047F044504626455047222E0E4624D96E01
:102DB000000E4720DA6EDF50486E48504A6E496A6E
:102DC000495051124A5052123EB007D0FF0E5114D2
:102DD0004B6E0F0E52144C6E0FD051C042F052C0C9
:102DE00043F0040E446ED89043324232442EFBD757
:102DF00042C04BF043C04CF04BC04DF04CC04EF0C5
:102E00005BD03CC031F03DC032F020EE1EF03C50B3
:102E1000D9263D50DA22DECF42F0DECF43F0DECFBE
:102E200044F0DECF45F03EC046F03FC047F040C022
:102E300048F041C049F047C046F048C047F049C09B
:102E400048F0496A42504624336E43504720346E5E
:102E500044504820356E45504920366E87EC2BF0A3
:102E60000009D8A4A7D0FF0E426E010E436E3EC0EB
:102E700044F03FC045F0D8904436453642504416A1
:102E8000435045163CC046F03DC047F044504626EE
:102E9000455047222E0E4624536E000E4720546E96
:102EA00053C0D9FF54C0DAFFDECF42F0DDCF43F08C
:102EB00042C04DF043C04EF04F6A506A7BD03CC0D8
:102EC00031F03DC032F020EE1EF03C50D9263D508E
:102ED000DA22DECF42F0DECF43F0DECF44F0DECFA9
:102EE00045F03EC046F03FC047F040C048F041C00A
:102EF00049F0080E05D0D890493248324732463260
:102F0000E82EF9D742504624336E43504720346EA2
:102F100044504820356E45504920366E87EC2BF0E2
:102F20000009D8A447D0FF0E426E010E436E3EC08A
:102F300044F03FC045F0D89044364536D8904436EA
:102F4000453642504416435045163CC046F03DC0FD
:102F500047F044504626455047222E0E4624536ED5
:102F6000000E4720546E53C0D9FF54C0DAFFFF0E45
:102F7000DE144D6EFF0EDE144E6EFF0EDE144F6E2D
:102F80000F0EDE14506E16D03CC0D9FF3DC0DAFFE4
:102F9000DF50426E436A4350000AD8A45BD64250C9
:102FA000010AD8B464D6030AD8B42BD7010AD8B41E
:102FB00086D750D64DC03CF04EC03DF04FC03EF0DD
:102FC00050C03FF0120000019A519B11D8A402D0CA
:102FD000090E12009AC0D9FF9BC0DAFF000EDE6E08
:102FE000000EDD6EE0C0BAF0E1C0BBF01F0E9E1710
:102FF000BA0E466E000E476E9C0E486E000E496E6D
:103000009E51FE0B4A6E0EEC04F00001B76FB751F3
:10301000D8A4A2D1A30ECE6F000ECF6FBA0E886FC8
:10302000000E896F9CC08AF09DC08BF05BEC23F092
:103030000001B76FCCC0B8F0CDC0B9F0B751D8A47B
:1030400006D0B851B911D8A402D0060EB76F9EC0F1
:103050009FF01C0E9F17D8B4D3D0B751D8B412D05C
:10306000040EB719D8A408D0BA0E8B6F000E8C6F5F
:1030700057EC28F00001B76F9E87CCC0B8F0CDC0E8
:10308000B9F012D020EE0BF0B851D926B951DA229E
:10309000DF509F6F110E9F17D8B402D0070E03D0D8
:1030A0009EA502D0080EB76FB751D8B49EA7C1D065
:1030B00020EE0EF0B851D926B951DA22000EDE6E9C
:1030C000000EDE6E210EDE6E460EDD6E20EE16F078
:1030D000B851D926B951DA22000EDE6E000EDE6E2E
:1030E000210EDE6E460EDD6E20EE0BF0B851D926B5
:1030F000B951DA22000EDF6E20EE1CF0B851D9264D
:10310000B951DA22DE6ADE6ADE6ADD6ABAC001F02F
:10311000BBC002F0B8C003F0B9C004F0E8EC2CF07A
:1031200001C0AFF002C0B0F003C0B1F004C0B2F013
:10313000B8C001F0B9C002F0000E036E000E046EBC
:10314000000E056E000E066E98EC2EF0000120EECB
:1031500004F0BA51D926BB51DA22010EDF6EAF510D
:10316000B011B111B211D8B464D020EE2AF0BA5126
:10317000D926BB51DA22DECFB3F0DECFB4F0DECFFA
:10318000B5F0DECFB6F0BAC057F0BBC058F0AFC054
:1031900059F0B0C05AF0B1C05BF0B2C05CF001ECC5
:1031A00024F00001B76FB751D8A443D0FF0EAF256C
:1031B0009F6FFF0EB021A06FFF0EB121A16FFF0E18
:1031C000B221A26F20EE0AF0BA51D926BB51DA2201
:1031D0009FC0DEFFA0C0DEFFA1C0DEFFA2C0DEFFF9
:1031E000BAC031F0BBC032F0B3C033F0B4C034F079
:1031F000B5C035F0B6C036F087EC2BF0000118D022
:10320000B751D8A416D020EE0BF0B851D926B95139
:10321000DA22DFA802D0040E0BD09EA30AD020EE43
:103220000BF0B851D926B951DA22DFA002D0070E2F
:10323000B76FB751D8A420D09EB79E8B20EE2AF04E
:10324000BA51D926BB51DA2210EE1AF09A51E12672
:103250009B51E222DECFE6FFDECFE6FFDECFE6FFC8
:10326000DECFE6FF20EE1EF09A51D9269B51DA22DE
:10327000B8C0DEFFB9C0DDFFB751D8A46DD020EED5
:1032800004F09A51D9269B51DA229EC0DFFF20EE2E
:1032900005F09A51D9269B51DA22000EDF6EBAC092
:1032A00001F0BBC002F0B8C003F0B9C004F0E8EC14
:1032B0002CF0000120EE0EF09A51D9269B51DA2213
:1032C00001C0DEFF02C0DEFF03C0DEFF04C0DEFF80
:1032D00020EE1CF0B851D926B951DA2210EE0AF0CE
:1032E0009A51E1269B51E222DECFE6FFDECFE6FFD8
:1032F000DECFE6FFDECFE6FF20EE06F09A51D926BC
:103300009B51DA22DE6ADE6ADE6ADD6A20EE16F0A2
:103310009A51D9269B51DA22DE6ADE6ADE6ADD6ABC
:103320009AC0D9FF9BC0DAFFBAC0DEFFBBC0DDFF89
:103330009AC0D9FF9BC0DAFF10EE06F0DE50E126FE
:10334000DD50E22220EE02F09A51D9269B51DA227A
:10335000E6CFDEFFE5CFDDFFB75112001250800B44
:103360001B6E12501224216E11BE21802150D8B440
:103370000DD02128D8A408D0000E0F6E000E106EBC
:10338000000E116E000E126E118E08D0000E0F6E20
:10339000000E106E000E116E000E126E1650800B95
:1033A0001B1A16501624206E15BE20802050D8B44B
:1033B0000DD02028D8A408D0000E136E000E146E75
:1033C000000E156E000E166E158E08D0000E136ED0
:1033D000000E146E000E156E000E166E2050D8B43E
:1033E00003D02150D8A409D0000E0F6E000E106E2D
:1033F000000E116E000E126E120015500F02F3CF68
:1034000026F0F4CF27F026501C6E1D6A1E6A1F6A34
:103410002750226E236A246A256A14501002F3CFC3
:1034200026F0F4CF27F026501C26000E1D221E2267
:103430001F2227502226000E232224222522135049
:103440001102F3CF26F0F4CF27F026501C26000EF1
:103450001D221E221F2227502226000E2322242254
:1034600025221EC01FF01DC01EF01CC01DF01C6ACE
:1034700013501002F3CF26F0F4CF27F026501C266D
:1034800027501D22000E1E22000E1F2214500F0274
:10349000F3CF26F0F4CF27F026501C2627501D220C
:1034A000000E1E22000E1F221EC01FF01DC01EF0A7
:1034B0001CC01DF01C6A13500F02F3CF26F0F4CF8E
:1034C00027F026501C2627501D22000E1E22000E1B
:1034D0001F2215501002F3CF26F0F4CF27F026500C
:1034E000222627502322000E2422000E25221450CB
:1034F0001102F3CF26F0F4CF27F0265022262750D2
:103500002322000E2422000E252215501102F3CF93
:1035100026F0F4CF27F02650176E2750186E196A40
:103520001A6A19C01AF018C019F017C018F0176AF3
:103530001750222618502322195024221A502522CF
:103540001CC017F01DC018F01EC019F01FC01AF0E3
:10355000190E05D0D8901A32193218321732E82EC7
:10356000F9D71750222618502322195024221A5016
:1035700025221EC01FF01DC01EF01CC01DF01C6ABD
:10358000205021C017F0186A1726000E1822820E4C
:103590001724266EFF0E1820276E0FD0D8902236E3
:1035A0002336243625361FBE2280D8901C361D3681
:1035B0001E361F362606D8A0270624AEEFD7000EEB
:1035C000206E1FAE17D0FF0E1C14176EFF0E1D14B9
:1035D000186EFF0E1E14196E7F0E1F141A6E1750F0
:1035E000181019101A10D8B403D0010E206E02D092
:1035F00022B0FBD72050D8B41FD0010E2226000ED7
:1036000023222422252225A017D022C017F023C070
:1036100018F024C019F025C01AF01A341A321932E1
:103620001832173217C022F018C023F019C024F046
:103630001AC025F0264A272A27BE0DD0275003E1BD
:103640002628D8A008D0000E226E000E236E800E11
:10365000246E7F0E20D027BE05D027500EE1260411
:10366000D8B00BD0000E226E000E236E000E246E1A
:10367000000E256E000E1B6E0FD026C021F0FF0E2F
:103680002216FF0E23167F0E2416000E251621B0DB
:10369000248ED8902130256E1B50251222C00FF0A9
:1036A00023C010F024C011F025C012F012005950B0
:1036B0005A105B105C10D8A42ED020EE0AF05750A0
:1036C000D9265850DA22DECF65F0DECF66F0DECFA5
:1036D00067F0DECF68F0000165516611671168116F
:1036E000D8B410D020EE12F05750D9265850DA2214
:1036F000DE50655DDE506659DE506759DE50685910
:10370000D8A05BD0010E656F000E666F000E676F6C
:10371000000E686F52D057C03CF058C03DF059C001
:103720003EF05AC03FF05BC040F05CC041F012EC8C
:1037300016F03CC06DF03DC06EF03EC06FF03FC073
:1037400070F0000170516F116E110DE1020E6D5D90
:10375000D8B009D0010E576E000E586E000E596E8B
:10376000000E5A6E12006D2910E16E290EE16F29CC
:103770000CE17029D8A409D06DC057F06EC058F084
:103780006FC059F070C05AF0120020EE12F057507E
:10379000D9265850DA22DE506D5DDE506E59DE506B
:1037A0006F59DE507059D8A0E7D759C065F05AC09C
:1037B00066F05BC067F05CC068F065C069F066C029
:1037C0006AF067C06BF068C06CF0010E6927000EEC
:1037D0006A236B236C2320EE12F05750D9265850E1
:1037E000DA22DE50695DDE506A59DE506B59DE50D8
:1037F0006C59D8A019D0020E696F000E6A6F000EC6
:103800006B6F000E6C6F6851671166110DE1020E4F
:10381000655DD8B009D0000E576E000E586E000ED0
:10382000596E000E5A6E120057C03CF058C03DF061
:1038300069C03EF06AC03FF06BC040F06CC041F020
:1038400012EC16F03CC06DF03DC06EF03EC06FF063
:103850003FC070F000016D516E116F117011D8B43E
:103860001DD06D2907E16E2905E16F2903E170295B
:10387000D8B482D76D056E116F117011D8B47CD792
:1038800065516919A2E166516A199FE167516B1987
:103890009CE168516C19D8B4BED797D757C03CF09B
:1038A00058C03DF069C03EF06AC03FF06BC040F0C8
:1038B0006CC041F0FF0E426EFF0E436EFF0E446E71
:1038C0000F0E456EFAEC11F00001646F6451D8A43C
:1038D0001ED059505A105B105C10D8B418D057C085
:1038E0003CF058C03DF059C03EF05AC03FF05BC0BC
:1038F00040F05CC041F069C042F06AC043F06BC068
:1039000044F06CC045F0FAEC11F00001646F6451B2
:10391000D8A431D020EE0AF05750D9265850DA22D8
:1039200069C0DEFF6AC0DEFF6BC0DEFF6CC0DEFF79
:1039300020EE0EF05750D9265850DA22DE2807E143
:10394000DE2805E1DE2803E1DE28D8B424D020EE0D
:103950000EF05750D9265850DA22DE06000EDE5AF5
:10396000DE5ADE5A20EE05F05750D9265850DA229A
:10397000000EDB8010D06405D8B409D0010E696F49
:10398000000E6A6F000E6B6F000E6C6F04D06969D9
:103990006A696B696C6969C057F06AC058F06BC09E
:1039A00059F06CC05AF0120020EE04F05750D9269E
:1039B0005850DA2259C0DEFF5AC0DDFF20EE06F073
:1039C0005750D9265850DA22DECF6DF0DECF6EF098
:1039D000DECF6FF0DECF70F000016D056E116F115C
:1039E0007011D8B414D057C0D9FF58C0DAFF10EE08
:1039F00012F0DE50E126DD50E222E6506D5DE65029
:103A00006E59E6506F59E6507059D8A002D0020E98
:103A100012006D516E116F117011D8A422D057C0D1
:103A2000D9FF58C0DAFFDECF60F0DDCF61F060C0B3
:103A3000D9FF61C0DAFF030EDE18D8A412D057C038
:103A4000D9FF58C0DAFF10EE22F0DE50E126DD503B
:103A5000E222E6CF6DF0E6CF6EF0E6CF6FF0E6CF74
:103A600070F06D516E116F117011D8A423D057C032
:103A7000D9FF58C0DAFF10EE08F0DE50E126DD5025
:103A8000E222E650595CE6505A58D8B0C0D757C029
:103A9000D9FF58C0DAFF10EE22F0DE50E126DD50EB
:103AA000E222E6CF69F0E6CF6AF0E6CF6BF0E6CF30
:103AB0006CF079D057C0D9FF58C0DAFF10EE02F091
:103AC000DE50E126DD50E222E750606F6051100DBC
:103AD000F3CF67F0F4CF68F046D057C0D9FF58C095
:103AE000DAFFDECF3CF0DDCF3DF06DC03EF06EC0C2
:103AF0003FF06FC040F070C041F012EC16F03CC0D7
:103B00006DF03DC06EF03EC06FF03FC070F0000140
:103B10006D2909E16E2907E16F2905E17029D8A413
:103B200002D0010E120070516F116E1104E1020EED
:103B30006D5DD8A06CD757C0D9FF58C0DAFF10EE22
:103B400012F0DE50E126DD50E222E6506D5DE650D7
:103B50006E59E6506F59E6507059D8B058D7675132
:103B6000595E68515A5A6751595C68515A58D8B0D1
:103B7000B4D757C0D9FF58C0DAFFDECF0DF0DDCF84
:103B80000EF06DC00FF06EC010F06FC011F070C07D
:103B900012F0D2EC2AF00DC069F00EC06AF00FC02E
:103BA0006BF010C06CF020EE0AF05750D926585038
:103BB000DA226DC0DEFF6EC0DEFF6FC0DEFF70C0B8
:103BC000DEFF000169516A116B116C11D8B41FD767
:103BD00059C060F05AC061F0040E626FD890613332
:103BE0006033622FFBD760516925636F61516A2191
:103BF000646F000E6B21656F000E6C21666F20EE06
:103C00000EF05750D9265850DA2263C0DEFF64C048
:103C1000DEFF65C0DEFF66C0DEFF0F0E5914606F69
:103C2000000E5A14616F050ED89060376137E82E88
:103C3000FBD757C0D9FF58C0DAFFDECF62F0DDCF27
:103C400063F060516227615163232E0E6227000EDC
:103C5000632320EE12F05750D9265850DA2262C062
:103C6000DEFF63C0DDFF000E12000BC0D9FF0CC0E9
:103C7000DAFFDECF18F0DDCF19F002D0184A192A8A
:103C800018C0F6FF19C0F7FFF86A0800F5502F0AB0
:103C9000D8B4F4D718C0F6FF19C0F7FFF86A0800C7
:103CA000F5505C0AD8B4EAD720EE14F00950D926B2
:103CB0000A50DA22DECF1BF0DDCF1CF01BC001F072
:103CC0001CC002F0000E046E200E036E000E066E85
:103CD0000B0E056E82EC2EF0000E156E15C01DF059
:103CE0001E6A1DC013F01EC014F0000E176E080EE1
:103CF000166E135018240D6E145019200E6E0DC040
:103D0000F6FF0EC0F7FFF86A0800F5CF1FF0134A60
:103D1000142A200E1F64A5D02F0E1F18D8B4A1D0CE
:103D20005C0E1F18D8B49DD02E0E1F18D8B406D024
:103D300016501D5C17501E58D8A018D0080E161823
:103D40001710D8A404D02E0E1F18D8B402D0060E17
:103D50001200000E1E6E080E1D6E000E176E0B0E6A
:103D6000166ED8901536D8901536C3D77F0E1F64BF
:103D700002D0030E1512800E1F6403D09F0E1F6425
:103D800006D0DF0E1F6444D0FD0E1F6041D01350DB
:103D900018240D6E145019200E6E0DC0F6FF0EC0C3
:103DA000F7FFF86A0800F5CF1AF0134A142A3F0EFD
:103DB0001A6403D07E0E1A6406D07F0E1A64C7D729
:103DC000FD0E1A60C4D7FF0E0D6EFF0E0E6E16C0EC
:103DD0000FF017C010F00D500F260E5010220F508C
:103DE0001D5C10501E58D8B0B2D71D501B24D96E80
:103DF0001E501C20DA6E1FC0DFFF1D4A1E2A1D50F8
:103E00001B24D96E1E501C20DA6E1AC0DFFF26D08C
:103E1000010E016E080E026E1FC003F0046AE4EC8E
:103E20002DF001500210D8A492D7400E1F6405D087
:103E30005B0E1F6002D0158209D0600E1F6406D091
:103E40007B0E1F6003D01580200E1F5E1D501B24AB
:103E5000D96E1E501C20DA6E1FC0DFFF1D4A1E2ABD
:103E600048D7135018240D6E145019200E6E0BC035
:103E7000D9FF0CC0DAFF0DC0DEFF0EC0DDFF200E43
:103E80001F6404D0000E126E000E03D0000E126EDE
:103E9000040E116E11C01FF01D501E10D8B457D75C
:103EA0001BC0D9FF1CC0DAFFE50EDE18D8A406D06F
:103EB0001BC0D9FF1CC0DAFF050EDF6E080E1618F6
:103EC0001710D8A404D0D8901536D89015361550B0
:103ED000030BE806D8B41F8815500C0B040AD8B49D
:103EE0001F8620EE0BF01B50D9261C50DA221FC073
:103EF000DFFF000E12002B50800B386E2B502B244E
:103F00003F6E2ABE3F803F50D8B40DD03F28D8A482
:103F100008D0000E286E000E296E000E2A6E000ECC
:103F20002B6E2A8E06D0000E286E000E296E000E13
:103F30002A6E000E2B6E2F50800B381A2F502F2414
:103F4000406E2EBE40804050D8B40DD04028D8A43A
:103F500008D0000E2C6E000E2D6E000E2E6E000E80
:103F60002F6E2E8E06D0000E2C6E000E2D6E000EC3
:103F70002E6E000E2F6E2C502D102E102F10D8A448
:103F800017D0000E286E000E296E000E2A6E000E4D
:103F90002B6E800E2A127F0E2B1238502B1228C047
:103FA00028F029C029F02AC02AF02BC02BF01200DB
:103FB0003F50D8A409D0000E286E000E296E000EC6
:103FC0002A6E000E2B6E120040503FC030F0316A56
:103FD000305E000E315A7F0E3024396E000E3120D3
:103FE0003A6E28C034F029C035F02AC036F02BC014
:103FF00037F0000E286E000E296E000E2A6E000E9D
:104000002B6E000E3B6E000E3C6E000E3D6E000EE1
:104010003E6E000E406E28D04050D8B411D0D890DB
:104020003436353636363736D890283629362A365D
:104030002B363EBE2880D8903B363C363D363E3649
:104040002C50345C2D5035582E5036582F50375840
:10405000D8A009D03E8C2C50345E2D50355A2E50AD
:10406000365A2F50375A402A190E4064D5D734504B
:10407000351036103710D8B411D03B800FD0D890FF
:10408000283629362A362B363EBE2880D8903B3635
:104090003C363D363E363906D8A03A062AAEEFD732
:1040A000000E406E3EAE17D0FF0E3B14306EFF0E7A
:1040B0003C14316EFF0E3D14326E7F0E3E14336E93
:1040C0003050311032103310D8B403D0010E406E8E
:1040D00002D028B0FBD74050D8B41FD0010E2826FC
:1040E000000E29222A222B222BA017D028C030F024
:1040F00029C031F02AC032F02BC033F033343332D0
:1041000032323132303230C028F031C029F032C082
:104110002AF033C02BF0394A3A2A3ABE10D03A502E
:1041200003E13928D8A00BD0000E3A6E3968000E92
:10413000286E000E296E000E2A6E000E2B6E3ABEFF
:1041400005D03A5011E13904D8B00ED0000E3A6EC5
:10415000000E396E000E286E000E296E000E2A6EBB
:10416000000E2B6E000E386E39C03FF03FA002D01B
:104170002A8E01D02A9ED8903F302B6E0ED7126E19
:104180001250D8B402D0010E12000001F1A303D0E6
:104190000001F151120022EC2FF00A0E1D6E04D026
:1041A000FF0E04EC2FF01D061D50D8A4F9D7000E09
:1041B0001A6E000E0B6E000E0C6E000E0D6E000ED1
:1041C0000E6E000E0BEC2EF0E806D8A4C1D0AA0E9D
:1041D0000B6E010E0C6E000E0D6E000E0E6E080EB4
:1041E0000BEC2EF0E806D8A467D0000E1D6E130E5F
:1041F0001D24D96EDA6A000EDA22FF0E04EC2FF0CD
:10420000DF6E1D2A030E1D64F2D71504D8A4A0D0BA
:10421000AA0E1618D8A49CD0030E1C6EE80E1B6EB6
:1042200018D0000E0B6E000E0C6E000E0D6E400EC0
:104230000E6EA90E0BEC2EF00009D8B40ED0030EB2
:10424000116E980EE82EFED7112EFCD71B06D8A0B3
:104250001C061B501C10D8A4E4D71B501C10D8B44B
:1042600077D0000E0B6E000E0C6E000E0D6E000E61
:104270000E6E3A0E0BEC2EF00009D8A469D0000E99
:104280001D6E130E1D24D96EDA6A000EDA22FF0E9F
:1042900004EC2FF0DF6E1D2A030E1D64F2D713BC51
:1042A00004D0000E186E040E03D0000E186E0C0E13
:1042B000176E17C01AF04CD0000E0B6E000E0C6E6D
:1042C000000E0D6E000E0E6EA90E0BEC2EF0116E90
:1042D000020E116004D0020E1A6EA90E03D0010E58
:1042E0001A6E010E196E030E1C6EE80E1B6E18D0AE
:1042F000000E0B6E000E0C6E000E0D6E000E0E6E9C
:1043000019500BEC2EF00009D8B40ED0030E116E2C
:10431000980EE82EFED7112EFCD71B06D8A01C063F
:104320001B501C10D8A4E4D71B501C10D8B40ED0BE
:10433000000E0B6E020E0C6E000E0D6E000E0E6E59
:10434000100E0BEC2EF00009D8B402D0000E1A6E3D
:104350001AC0E2F030EC2FF01A50D8B419D700018F
:10436000F19114EC2FF014D73AC01CF03BC01DF0B3
:104370009DEC22F0446E4450D8A4DDD03AC0D9FF61
:104380003BC0DAFF030EDE18D8A4C1D020EE05F042
:104390003A50D9263B50DA22DE04D8A4B8D02E0EEB
:1043A0003A24016E000E3B20026E000E046E000ED9
:1043B000036E020E066E000E056E82EC2EF022EEEB
:1043C0002CF03A50D9263B50DA22550EDE6EAA0E5A
:1043D000DD6E20EE2EF03A50D9263B50DA22520EF6
:1043E000DE6E520EDE6E610EDE6E410EDD6E22EE70
:1043F00012F03A50D9263B50DA22720EDE6E720E5F
:10440000DE6E410EDE6E610EDD6E20EE0EF03A5075
:10441000D9263B50DA2212EE16F03A50E1263B50F4
:10442000E222DECFE6FFDECFE6FFDECFE6FFDECF25
:10443000E6FF20EE0AF03A50D9263B50DA2212EE7F
:104440001AF03A50E1263B50E222DECFE6FFDECF03
:10445000E6FFDECFE6FFDECFE6FF20EE1AF03A50B1
:10446000D9263B50DA22DECF3CF0DECF3DF0DECF66
:104470003EF0DECF3FF0010E3C24406E000E3D20AA
:10448000416E000E3E20426E000E3F20436E20EE35
:104490002AF03A50D9263B50DA2240C0DEFF41C014
:1044A000DEFF42C0DEFF43C0DEFF2E0E3A243C6E2C
:1044B000000E3B203D6E3CC011F03DC012F011508B
:1044C0001210D8A4200E136E20EE2AF03A50D926EE
:1044D0003B50DA22DECF14F0DECF15F0DECF16F03F
:1044E000DECF17F0000E196E010E186E20EE01F0EF
:1044F0003A50D9263B50DA22DF50E7EC25F020EE87
:1045000005F03A50D9263B50DA22000EDF6E000E3D
:10451000116E000E126E000E136E20EE01F03A5076
:10452000D9263B50DA22DF50ABEC0FF00009D8B4AB
:1045300002D0010E446E44501200000E2A6E20EE8E
:1045400004F01C50D9261D50DA22DF50D8B4B1D067
:1045500020EE2AF01C50D9261D50DA22DECF2DF095
:10456000DECF2EF0DECF2FF0DECF30F02E0E1C246B
:104570001E6E000E1D201F6E1EC011F01FC012F017
:1045800011501210D8A4200E136E2DC014F02EC09E
:1045900015F02FC016F030C017F0000E196E010E86
:1045A000186E20EE01F01C50D9261D50DA22DF5083
:1045B000E7EC25F00009D8B403D0010E2A6E79D0BB
:1045C00020EE04F01C50D9261D50DA22000EDF6EBA
:1045D00020EE16F01C50D9261D50DA2210EE1EF0E7
:1045E0001C50E1261D50E222E6CF22F0E6CF23F058
:1045F000E6CF24F0E6CF25F022502D5C266E235026
:104600002E58276E24502F58286E25503058296E6A
:10461000DE50265CDE502758DE502858DE502958E0
:10462000D8B047D020EE03F01C50D9261D50DA2216
:10463000DF501E6E1E502B6E2C6A2C5004E1020EB1
:104640002B5CD8A036D020EE16F01C50D9261D5079
:10465000DA22DE502D26DE502E22DE502F22DD50B3
:1046600030222E0E1C241E6E000E1D201F6E1EC03A
:1046700011F01FC012F011501210D8A4200E136EAA
:104680002DC014F02EC015F02FC016F030C017F05A
:10469000000E196E010E186E20EE01F01C50D92686
:1046A0001D50DA22DF50E7EC25F02B06D8A02C06AF
:1046B000C4D72A5012008AC0F6FF8BC0F7FFF86AF1
:1046C0000800F5502F0AD8B40AD08AC0F6FF8BC074
:1046D000F7FFF86A0800F5505C0AD8A403D000017F
:1046E0008A4B8B2B000120EE06F08851D926895188
:1046F000DA22DE6ADE6ADE6ADD6A8AC0F6FF8BC015
:10470000F7FFF86A200E0800F56017D088C057F050
:1047100089C058F0000E5A6E000E596ED4EC1CF091
:1047200000018F6F20EE12F08851D9268951DA22CC
:10473000000EDE6E000EDD6E62D088C009F089C00A
:104740000AF08A0E0B6E000E0C6E35EC1EF00001A6
:104750008F6F8F51D8A453D088C05DF089C05EF0B0
:104760006BEC27F000018F6F20EE14F08851D926F2
:104770008951DA2210EE0BF0DE50E126DD50E22204
:10478000E7508E6F8F51D8B408D0040E8F19D8B46B
:104790008EB535D0050E8F6F32D08EB530D020EE6D
:1047A00012F08851D9268951DA22DECF8CF0DDCF84
:1047B0008DF020EE0BF08C51D9268D51DA22DFA836
:1047C000E9D788C0D9FF89C0DAFFDECF01F0DDCF9D
:1047D00002F08CC003F08DC004F0E8EC2CF0000176
:1047E00020EE06F08851D9268951DA2201C0DEFF79
:1047F00002C0DEFF03C0DEFF04C0DEFF9ED78F5184
:1048000012005C505B105A1004E1020E595CD8A0F3
:1048100010D020EE12F05750D9265850DA22DE5030
:10482000595CDE505A58DE505B58DE505C58D8A0B8
:1048300003D0020E000131D0000E0001646F74D06D
:1048400057C03CF058C03DF059C03EF05AC03FF050
:104850005BC040F05CC041F012EC16F03CC065F06B
:104860003DC066F03EC067F03FC068F00001655192
:10487000661167116811D8B467D0650566116711B4
:104880006811D8B4D6D765290AE1662908E16729F5
:1048900006E16829D8A403D0010E646F55D057C033
:1048A0003CF058C03DF059C03EF05AC03FF05BC0EC
:1048B00040F05CC041F0000E426E000E436E000EF0
:1048C000446E000E456EFAEC11F00001646F645105
:1048D000D8A43AD020EE0EF05750D9265850DA22FC
:1048E000DE2807E1DE2805E1DE2803E1DE28D8B472
:1048F00013D020EE0EF05750D9265850DA22DE2A77
:10490000000EDE22DE22DE2220EE05F05750D926F0
:104910005850DA22000EDB8065C059F066C05AF0AC
:1049200067C05BF068C05CF020EE12F05750D926EB
:104930005850DA22DE50595CDE505A58DE505B582F
:10494000DE505C58D8A07CD76451120045C002F0FC
:1049500046C003F0DAEC2BF04B6E4B50D8A495D048
:1049600020EE04F04550D9264650DA22DFAA8DD039
:1049700045C0D9FF46C0DAFFDECF31F0DDCF32F0DF
:1049800020EE1AF04550D9264650DA22DECF33F019
:10499000DECF34F0DECF35F0DECF36F087EC2BF013
:1049A0004B6E4B50D8A471D020EE1EF04550D92646
:1049B0004650DA22DECF4CF0DDCF4DF020EE0BF08A
:1049C0004C50D9264D50DA22000EDB8A20EE0AF038
:1049D0004550D9264650DA2210EE1CF04C50E12604
:1049E0004D50E222DECFE6FFDECFE6FFDECFE6FF70
:1049F000DECFE6FF4CC001F04DC002F020EE0EF01D
:104A00004550D9264650DA22DECF03F0DECF04F03F
:104A1000DECF05F0DECF06F098EC2EF020EE16F09B
:104A20004C50D9264D50DA22000EDE6E000EDE6E9E
:104A3000210EDE6E460EDD6E20EE12F04C50D926B1
:104A40004D50DA22000EDE6E000EDD6E20EE04F018
:104A50004550D9264650DA22DF0EDF1645C0D9FF71
:104A600046C0DAFF10EE04F0DE50E126DD50E2220F
:104A7000010EE76E45C0D9FF46C0DAFFDECF3AF03F
:104A8000DDCF3BF0B4EC21F04B6E4B501200096EC1
:104A90000950D8A404AE1AD001C005F002C006F037
:104AA00003C007F004C008F0051E061E071E081EFE
:104AB000052A000E06220722082205C00BF006C0B8
:104AC0000CF007C00DF008C00EF008D001C00BF0CC
:104AD00002C00CF003C00DF004C00EF00150021033
:104AE00003100410D8A409D0000E016E000E026E4F
:104AF000000E036E000E046E1200960E0A6E06D0B3
:104B00000A2AD8900E320D320C320B32000E0B14E2
:104B1000056E000E0C14066E000E0D14076EFE0ED0
:104B20000E14086E0550061007100810D8B40DD0EA
:104B3000E7D70A2A010E0B26000E0C220D220E22A8
:104B4000D8900E320D320C320B32000E0B14056E63
:104B5000000E0C14066E000E0D14076EFF0E0E14E0
:104B6000086E0550061007100810D8B407D0E1D71A
:104B70000A06D8900B360C360D360E360DBE03D015
:104B8000020E0A60F5D70AA00D9ED8900A320AC01C
:104B900005F0066A076A086A05C008F0076A066A2F
:104BA000056A05500B1206500C1207500D120850E2
:104BB0000E120950D8A404AE01D00E8E0BC001F025
:104BC0000CC002F00DC003F00EC004F012001B6E0A
:104BD0001B50D8A404D018501910D8A402D0040E29
:104BE00012000001F1A102D0030E1200F1A502D0C3
:104BF000020E1200E2B708D0090ED890143615360E
:104C000016361736E82EF9D718041910D8A41FD075
:104C100014C00BF015C00CF016C00DF017C00EF04C
:104C2000180E0BEC2EF00009D8A458D011C004F0D7
:104C300012C005F013C006F0FE0E076E24EC2CF037
:104C40000009D8B44BD0000E196E000E46D0E2C059
:104C50001AF0060E1A16D8B409D018C00BF019C0F5
:104C60000CF00D6A0E6A970E0BEC2EF014C00BF0D0
:104C700015C00CF016C00DF017C00EF0190E0BEC9D
:104C80002EF00009D8A42AD011C004F012C005F0FB
:104C900013C006F0FC0E076E24EC2CF00009D8B40B
:104CA0000DD0000E1126020E1222000E132218063D
:104CB000D8A0190618501910D8A4E6D7000E046E13
:104CC000000E056E066AFD0E076E24EC2CF000093E
:104CD000D8A404D0000E196E010E186E30EC2FF01F
:104CE00018501910D8B402D0010E1200000E120094
:104CF0000001D44BD52BC282DCC001F0DDC002F034
:104D0000D4C003F0D5C004F0ADEC2EF001C0DCF04F
:104D100002C0DDF0DCC05DF0DDC05EF0D8905E3238
:104D20005D32D8905E325D325D50806E000E136E43
:104D3000000E146EA00E156E400E166EDCC001F053
:104D4000DDC002F0036A046A000E47EC25F001C0E2
:104D50000FF002C010F003C011F004C012F0AEEC6E
:104D600019F00FC028F010C029F011C02AF012C0AD
:104D70002BF0000E2C6EC00E2D6E7F0E2E6E440E8C
:104D80002F6E7BEC1FF028C0D0F029C0D1F02AC0D4
:104D9000D2F02BC0D3F0DCC0EFF00001F06B000EBE
:104DA000716F010E726FEFC05DF0F0C05EF05F6A70
:104DB0005EBE5F685DC073F05EC074F05FC075F08A
:104DC000000E776F020E766FE30E786F000E796F2C
:104DD000E5EC08F0E80E0001D4198AE1030ED519BC
:104DE000D8B4120085D784C057F085C058F0000EA3
:104DF0005A6E000E596ED4EC1CF000018A6F8A5175
:104E0000D8A461D0000E896F000E886F84C0D9FFCE
:104E100085C0DAFFDECF31F0DDCF32F020EE0EF0CC
:104E20008451D9268551DA22DECF33F0DECF34F03B
:104E3000DECF35F0DECF36F087EC2BF000018A6F45
:104E40008A51D8A440D020EE12F08451D926855141
:104E5000DA22DECF5DF0DDCF5EF05DC0D9FF5EC04F
:104E6000DAFFE50EDE18D8B411D020EE12F084512E
:104E7000D9268551DA22DECF5DF0DDCF5EF05DC050
:104E8000D9FF5EC0DAFFDF50D8A40AD0884B892B47
:104E90008651881909E187518919D8B414D004D0F2
:104EA000000E896F000E886F84C071F085C072F0AB
:104EB000000E746F010E736F0FEC14F000018A6F17
:104EC0008A51D8B4A3D7040E8A19D8A402D0070EE9
:104ED0008A6F8A5112005DC057F05EC058F0000E14
:104EE0005A6E000E596ED4EC1CF00001876F87518A
:104EF000D8B403D00001875112005DC0D9FF5EC055
:104F0000DAFFDECF31F0DDCF32F020EE0EF05D5073
:104F1000D9265E50DA22DECF33F0DECF34F0DECF9A
:104F200035F0DECF36F087EC2BF00001876F87512C
:104F3000D8A4E0D720EE12F05D50D9265E50DA22D8
:104F4000DECF85F0DDCF86F085C0D9FF86C0DAFFE1
:104F5000DF50846F8451D8A403D0040E876FCAD762
:104F600020EE0BF08551D9268651DA22DFB618D013
:104F700085C001F086C002F020EE14F05D50D92605
:104F80005E50DA22DECF03F0DDCF04F0000E066EB5
:104F90000B0E056E5DEC2DF001500210D8B4AAD7AF
:104FA0005DC071F05EC072F0000E0001746F000E03
:104FB000736F0FEC14F00001876F8751D8A49AD754
:104FC0009CD720EE04F03C50D9263D50DA22000E4A
:104FD000DF6E20EE2AF03C50D9263D50DA22FF0E3B
:104FE000DE6EFF0EDE6EFF0EDE6EFF0EDD6E3CC06F
:104FF00031F03DC032F03EC033F03FC034F040C02D
:1050000035F041C036F087EC2BF00009D8B402D05F
:10501000030E120022EE2CF03C50D9263D50DA222D
:10502000550EDE1804E1AA0EDE18D8B402D0020E26
:10503000120020EE64F03C50D9263D50DA22FF0EDB
:10504000DE14426EFF0EDE14436EFF0EDE14446E5D
:10505000000EDE14456E460E42180AE1410E43185A
:1050600007E1540E44184510D8A402D0000E1200D7
:1050700020EE80F03C50D9263D50DA22FF0EDE149F
:10508000426EFF0EDE14436EFF0EDE14446E000E01
:10509000DE14456E460E421808E1410E431805E144
:1050A000540E44184510D8B4E1D7010E12008BC03D
:1050B00084F08CC085F0000E0001876F010E866FB2
:1050C000F3EC26F000018F6F8F51D8A461D08BC014
:1050D000D9FF8CC0DAFFDECF31F0DDCF32F020EE29
:1050E0000EF08B51D9268C51DA22DECF33F0DECF91
:1050F00034F0DECF35F0DECF36F087EC2BF0000158
:105100008F6F8F51D8A444D020EE12F08B51D92646
:105110008C51DA22DECF01F0DDCF02F0000E046EFA
:10512000000E036E000E066E200E056E82EC2EF051
:10513000000120EE12F08B51D9268C51DA22DECFFD
:1051400001F0DDCF02F020EE14F08B51D9268C5106
:10515000DA22DECF8DF0DDCF8EF08DC003F08EC071
:1051600004F003500410D8A4200E056E000E076E44
:105170000B0E066EA4EC29F08BC0D9FF8CC0DAFFB1
:1051800010EE04F0DE50E126DD50E222010EE76E63
:1051900000018F51120009680A6801C0D9FF02C0DE
:1051A000DAFFDE50DE10D8B45FD001C0D9FF02C0F4
:1051B000DAFFDECF0DF0DDCF0EF002D00D4A0E2A61
:1051C0000DC0F6FF0EC0F7FFF86A200E0800F56468
:1051D0000AD00DC0F6FF0EC0F7FFF86A0800F550C0
:1051E0003A0AD8A4EBD70DC0F6FF0EC0F7FFF86A55
:1051F0000800F5503A0AD8A43CD001C0D9FF02C03B
:10520000DAFFDECF07F0DDCF08F007C0F6FF08C0F9
:10521000F7FFF86A0800F5CF03F0D00E03240B6EF9
:105220000C6AFF0E0C22074A082A0C501DE10A0ED8
:105230000B5CD8B019D00D50071816E10E500818A5
:10524000D8A412D00B500C10D8A40ED00BC009F06B
:105250000CC00AF00D4A0E2A01C0D9FF02C0DAFFC5
:105260000DC0DEFF0EC0DDFF09C001F00AC002F074
:105270001200000E0A6E000E096EF6D7196E195054
:10528000D8A404D017501810D8A402D0040E1200CD
:105290000001F1A102D0030E1200E2B708D0090EFE
:1052A000D8901336143615361636E82EF9D718501E
:1052B00008E1020E175CD8B004D0000E1B6E110E70
:1052C00003D0000E1B6E120E1A6E1AC01CF013C013
:1052D0000BF014C00CF015C00DF016C00EF01C50F1
:1052E0000BEC2EF00009D8A425D011C002F012C09A
:1052F00003F0020E056E000E046E27EC2DF000097F
:10530000D8B409D0020E12261706D8A018061750D6
:105310001810D8A4EAD7120E1C18D8A40BD0000E6F
:105320000B6E000E0C6E000E0D6E000E0E6E0C0E4F
:105330000BEC2EF030EC2FF017501810D8B402D030
:10534000010E1200000E120001C00DF002C00EF09E
:1053500003C00AF004C00BF005C00CF02DD00AC049
:10536000F6FF0BC0F7FF0CC0F8FFF8BA07D0090032
:10537000F5CF08F00900F5CF09F008D0F6CFE9FF26
:10538000F7CFEAFFEECF08F0EECF09F00DC0D9FF5E
:105390000EC0DAFF08C0DEFF09C0DDFF020E0D26D9
:1053A000000E0E22020E0A26000E0B22000E0C2208
:1053B000020E065E000E075A0750D1E1020E065C8F
:1053C000D8A01ED0CCD70AC0F6FF0BC0F7FF0CC088
:1053D000F8FF0DC0D9FF0EC0DAFFF8BA03D00800FD
:1053E000F55005D0F6CFE9FFF7CFEAFFEF50DF6EBB
:1053F000010E0A26000E0B22000E0C220D4A0E2A68
:105400000606D8A007060628DEE10728D8B4120051
:10541000DAD7000E8C6E000E956E000E0F015E6FD7
:10542000000E8D6E000E966E000E5F6F20EEE5F0A2
:1054300010EE04F0090EDBCFE3FFE806FCE2210EDC
:1054400001180210D8B410D0370E01180210D8B4C9
:105450000BD0040E0124D96E000E0220DA6EDF504C
:105460008C6E010E8D6E1200210E01180210D8A450
:1054700005D00AC08CFF020E8D6E1200E70E0118D7
:1054800007E1030E0218D8A403D0000E8D6E12009F
:1054900004C08CFF010E8D6E030E036E980EE82E75
:1054A000FED7032EFCD7000E8D6E0DC08CFF020EB2
:1054B0008D6E030E036E980EE82EFED7032EFCD7DA
:1054C000000E8D6E0AC08CFF040E8D6E030E036EEF
:1054D000980EE82EFED7032EFCD7D7D71BEC2FF063
:1054E000200E536E010E546E1A0E556E080E566E37
:1054F000010E576E2FEC2BF00009D8B40FD0200E00
:10550000536E010E546E1A0E556E080E566E010E35
:10551000576E2FEC2BF00009D8A4F1D7000E026EC5
:10552000010E016E09EC2AF0000E00019A6F010EC7
:105530009B6F100E9C6F080E9D6F130E9E6FE3EC19
:1055400017F00009D8A427D001010A510B110C1142
:105550000D11D8B411D0000E0001716F010E726FE1
:105560000AC173F00BC174F00CC175F00DC176F077
:10557000A4EC0CF00009D8B478EC26F0000E4E6EC6
:10558000010E4F6E4AEC2EF0000E026E370E016EC9
:1055900009EC2AF01200000E026E000E016E09ECFA
:1055A0002AF01200020E0F5E000E105A115A125A03
:1055B00020EE12F00D50D9260E50DA22FE0EDE2417
:1055C000136EFF0EDE20146EFF0EDE20156EFF0E32
:1055D000DE20166E13500F5C1450105815501158E1
:1055E00016501258D8A009D0000E0D6E000E0E6E87
:1055F000000E0F6E000E106E120020EE26F00D5001
:10560000D9260E50DA22DECF13F0DECF14F0DECF33
:1056100015F0DECF16F020EE02F00D50D9260E5018
:10562000DA22DF50176E1750016E026A036A046AAD
:105630000FC005F010C006F011C007F012C008F04E
:1056400090EC2DF0135001240D6E145002200E6EBC
:10565000155003200F6E16500420106E120055C016
:105660005BF056C05CF05B0E016E000E026ECBEC80
:1056700028F001C05DF002C05EF05EAE02D00B0EFD
:105680001200D8905D34D96E5E34DA6EE00ED92601
:10569000000EDA22DECF59F0DDCF5AF059505A1001
:1056A000D8B406D059C0D9FF5AC0DAFF000EDF6E59
:1056B00053505410D8B406D053C0D9FF54C0DAFFA9
:1056C000000EDF6ED8905D34D96E5E34DA6EE00E77
:1056D000D926000EDA2253C0DEFF54C0DDFF53503E
:1056E0005410D8B403D05704D8B402D0000E12001E
:1056F000530E466E000E476E550E486E000E496EF4
:10570000000E4A6E0EEC04F0586E58501200000E57
:105710003B6E20EE2AF03150D9263250DA22335037
:10572000DE180AE13450DE1807E13550DE1804E1D6
:105730003650DE18D8B43CD031C01CF032C01DF059
:105740009DEC22F03B6E3B50D8A432D02E0E31247B
:10575000116E000E3220126E33C013F034C014F0FC
:1057600035C015F036C016F0000E186E010E176E1B
:1057700020EE01F03150D9263250DA22DF503EECD3
:1057800029F00009D8B406D0336834683568366823
:10579000010E3B6E20EE2AF03150D9263250DA222B
:1057A00033C0DEFF34C0DEFF35C0DEFF36C0DEFFB3
:1057B0003B50120002C008F003C009F00850091065
:1057C000D8B43ED008C0D9FF09C0DAFFDE50DE10E1
:1057D000D8B436D008C0D9FF09C0DAFFDECF04F054
:1057E000DDCF05F004C0D9FF05C0DAFFDF50D8B423
:1057F00027D020EE02F00850D9260950DA2208C03E
:10580000E1FF09C0E2FF00EE06F0E650E926E550B0
:10581000EA22DE50EE1814E1DE50EE18D8A410D0C3
:1058200008C0D9FF09C0DAFF10EE01F0DE50E12612
:10583000DD50E222E750F2EC2EF0046E04A002D01C
:10584000090E1200000E12002CEC2EF00009D8A454
:1058500002D0000E1200075004EC2FF0FD0E0718C6
:10586000D8B432D0020E096E000E086E04C0F6FFE6
:1058700005C0F7FF06C0F8FFF8BA03D00800F550DE
:1058800005D0F6CFE9FFF7CFEAFFEF5004EC2FF099
:10589000010E0426000E0522000E06220806D8A0DE
:1058A000090608500910D8A4E1D7FF0E04EC2FF028
:1058B000FF0E04EC2FF0FF0E04EC2FF00A6E0A50DE
:1058C0001F0B050AD8A4C5D7010E1200000E096EE1
:1058D000000E0A6E000E0B6E000E0C6E05500610C8
:1058E00007100810D8B42AD0010E0D6E06D0D8903B
:1058F00005360636073608360D2A08AEF8D7D89092
:1059000009360A360B360C360550015C0650025833
:105910000750035808500458D8A009D00550015E1C
:105920000650025A0750035A0850045A0980D8906A
:1059300008320732063205320D2EE1D709C001F0D8
:105940000AC002F00BC003F00CC004F012000A6E93
:105950000C0E0A18D8B409D030EC2FF0E3EC2EF07E
:105960000009D8A402D0FF0E12000A50400904EC2E
:105970002FF0075004EC2FF0065004EC2FF00550E8
:1059800004EC2FF0045004EC2FF0010E096E0A50C5
:10599000D8A402D0950E096E080E0A18D8A402D019
:1059A000870E096E095004EC2FF00C0E0A18D8A4CB
:1059B00003D0FF0E04EC2FF00A0E096EFF0E04EC6C
:1059C0002FF0086E08AE02D0092EF8D7085012004A
:1059D0001A0E0324D96E000E0420DA6EDECF05F015
:1059E000DDCF06F005C00BF006C00CF00D6A0E6AA4
:1059F00001C0D9FF02C0DAFF030EDE18D8A41ED002
:105A0000140E0324D96E000E0420DA6EDECF05F0EA
:105A1000DDCF06F00550076E0650086E096A0A6A67
:105A200008C00AF007C009F0086A076A07500B129D
:105A300008500C1209500D120A500E120BC001F042
:105A40000CC002F00DC003F00EC004F01200070EEF
:105A5000076ED00E066E0ED0FF0E04EC2FF0086E0F
:105A60000828D8A40BD0420EE82EFED700D0060698
:105A7000D8A0070606500710D8A4EED7FE0E0818C7
:105A8000D8B402D0000E1200FF0E04EC2FF002C0BA
:105A9000D9FF03C0DAFFDF6E024A032A0406D8A04A
:105AA000050604500510D8A4EFD7FF0E04EC2FF024
:105AB000FF0E04EC2FF0010E120001C009F002C02D
:105AC0000AF003C00BF004C00CF0000E0E6E000EC6
:105AD0000D6E0506D8A00606052803E10628D8B4F1
:105AE0001AD009C0D9FF0AC0DAFF094A0A2ADF50D2
:105AF000076E0BC0D9FF0CC0DAFF0B4A0C2ADF502F
:105B0000086E0850075C0D6E0E6AD8A00E060D5088
:105B10000E10D8B4DED70DC001F00EC002F0120096
:105B2000000E096E000E0A6E000E0B6E000E0C6E5B
:105B300001A008D00550092606500A2207500B2262
:105B400008500C22D8900536063607360836D8900D
:105B500004320332023201320150021003100410E9
:105B6000D8A4E6D709C001F00AC002F00BC003F0C8
:105B70000CC004F01200520EF66E5E0EF76E000EB0
:105B8000F86E00EEE5F010EE0DF00900F5CFEEFF37
:105B9000E550E150FAE101EE20F012EE2EF0EE6A4F
:105BA000E550E150FCE1E250FAE101EE00F0200E98
:105BB000EE6AE806FDE100EED0F0150EEE6AE806AA
:105BC000FDE1000167EF2EF002D0014A022A01C078
:105BD000F6FF02C0F7FFF86A0800F5500009D8B4D4
:105BE00010D001C0F6FF02C0F7FFF86A0800F550B8
:105BF000056E066A03500518E8E104500618D8A49B
:105C0000E4D701C0F6FF02C0F7FFF86A0800F550BC
:105C1000016E026A12000F6E0FAE12D00F9E000EC0
:105C2000046E000E056E000E066E000E076E370E37
:105C3000A7EC2CF0106E010E106402D01050120070
:105C40000BC004F00CC005F00DC006F00EC007F04C
:105C50000F50A7EC2CF01200130E036E880E026E8C
:105C60000DD0FF0E04EC2FF0FF0AD8B40BD0420E7B
:105C7000E82EFED700D00206D8A00306025003107B
:105C8000D8A4EFD702500310D8B402D0010E1200EE
:105C9000000E12004EC045F04FC046F0A6EC24F0B6
:105CA000506E5050D8A412004EC002F04FC003F006
:105CB000DAEC2BF0506E5050D8A412004EC0D9FF31
:105CC0004FC0DAFF000EDE6E000EDD6E12000CEC2F
:105CD0002FF0530ED36E940EC06E000EC16E000EE8
:105CE000896E000E926E000E0F015B6F040E946EB3
:105CF000040E5D6F390EC26EF28EF28C9D8C6EECCE
:105D00002AF0FDD701C007F002C008F008D007C094
:105D1000D9FF08C0DAFF03C0DFFF074A082A0506DB
:105D2000D8A006060528F3E10628D8B41200EFD75C
:105D300020EE1AF00150D9260250DA2203C0DEFF0D
:105D400004C0DDFF20EE14F00150D9260250DA2203
:105D500005C0DEFF06C0DDFF12009EAC0AD09D9C90
:105D6000C450066E056AC3500524016E000E06205D
:105D7000026E9D8C9E9C01C001F002C002F01200D8
:105D800001500302F3CF05F0F4CF06F001500402F6
:105D9000F350062602500302F350062605C001F018
:105DA00006C002F01200040E8A6E000E8B6EF10E19
:105DB000936EC70E946EC40E0F015D6F300E5C6F54
:105DC0008568F19E12008A94FF0E04EC2FF02CECF3
:105DD0002EF00009D8B402D0010E120030EC2FF0E2
:105DE000000E1200016E0150D8B402D0010E120054
:105DF0000001F1511200600ED36E000ED26E000E43
:105E00009B6E000EB56E1200016EC69E01C0C9FFEA
:105E1000C7A0FED7C9501200000E896E000E926E08
:105E2000000E0F015B6F1200400EC76E200EC66E93
:105E3000000EC86E1200D3EC2EF0FBEC2EF022EC1C
:105E40002FF01200400EC76E220EC66E000EC86EF6
:0F5E500012007E306D79335B5F707F730C000141
:0A5E60008A84FF0E04EC2FF01200FC
:020000040020DA
:08000000FFFFFFFFFFFFFFFF00
:020000040030CA
:0E00000000285F3CFFD185FF0FC00FE00F40CE
:00000001FF
