:020000040000FA
:040000000CEF08F009
:1008000000222A2B2C3A3B3C3D3E3F5B5D7C7F0027
:100810004265654465762E74787400001250800B32
:100820001B6E12501224216E11BE21802150D8B4AB
:100830000DD02128D8A408D0000E0F6E000E106E27
:10084000000E116E000E126E118E08D0000E0F6E8B
:10085000000E106E000E116E000E126E1650800B00
:100860001B1A16501624206E15BE20802050D8B4B6
:100870000DD02028D8A408D0000E136E000E146EE0
:10088000000E156E000E166E158E08D0000E136E3B
:10089000000E146E000E156E000E166E2050D8B4A9
:1008A00003D02150D8A409D0000E0F6E000E106E98
:1008B000000E116E000E126E120015500F02F3CFD3
:1008C00026F0F4CF27F026501C6E1D6A1E6A1F6AA0
:1008D0002750226E236A246A256A14501002F3CF2F
:1008E00026F0F4CF27F026501C26000E1D221E22D3
:1008F0001F2227502226000E2322242225221350B5
:100900001102F3CF26F0F4CF27F026501C26000E5C
:100910001D221E221F2227502226000E23222422BF
:1009200025221EC01FF01DC01EF01CC01DF01C6A39
:1009300013501002F3CF26F0F4CF27F026501C26D8
:1009400027501D22000E1E22000E1F2214500F02DF
:10095000F3CF26F0F4CF27F026501C2627501D2277
:10096000000E1E22000E1F221EC01FF01DC01EF012
:100970001CC01DF01C6A13500F02F3CF26F0F4CFF9
:1009800027F026501C2627501D22000E1E22000E86
:100990001F2215501002F3CF26F0F4CF27F0265077
:1009A000222627502322000E2422000E2522145036
:1009B0001102F3CF26F0F4CF27F02650222627503D
:1009C0002322000E2422000E252215501102F3CFFF
:1009D00026F0F4CF27F02650176E2750186E196AAC
:1009E0001A6A19C01AF018C019F017C018F0176A5F
:1009F0001750222618502322195024221A5025223B
:100A00001CC017F01DC018F01EC019F01FC01AF04E
:100A1000190E05D0D8901A32193218321732E82E32
:100A2000F9D71750222618502322195024221A5081
:100A300025221EC01FF01DC01EF01CC01DF01C6A28
:100A4000205021C017F0186A1726000E1822820EB7
:100A50001724266EFF0E1820276E0FD0D89022364E
:100A60002336243625361FBE2280D8901C361D36EC
:100A70001E361F362606D8A0270624AEEFD7000E56
:100A8000206E1FAE17D0FF0E1C14176EFF0E1D1424
:100A9000186EFF0E1E14196E7F0E1F141A6E17505B
:100AA000181019101A10D8B403D0010E206E02D0FD
:100AB00022B0FBD72050D8B41FD0010E2226000E42
:100AC00023222422252225A017D022C017F023C0DC
:100AD00018F024C019F025C01AF01A341A3219324D
:100AE0001832173217C022F018C023F019C024F0B2
:100AF0001AC025F0264A272A27BE0DD0275003E129
:100B00002628D8A008D0000E226E000E236E800E7C
:100B1000246E7F0E20D027BE05D027500EE126047C
:100B2000D8B00BD0000E226E000E236E000E246E85
:100B3000000E256E000E1B6E0FD026C021F0FF0E9A
:100B40002216FF0E23167F0E2416000E251621B046
:100B5000248ED8902130256E1B50251222C00FF014
:100B600023C010F024C011F025C012F012002B5049
:100B7000800B386E2B502B243F6E2ABE3F803F5097
:100B8000D8B40DD03F28D8A408D0000E286E000E8F
:100B9000296E000E2A6E000E2B6E2A8E06D0000ED5
:100BA000286E000E296E000E2A6E000E2B6E2F503E
:100BB000800B381A2F502F24406E2EBE408040509C
:100BC000D8B40DD04028D8A408D0000E2C6E000E4A
:100BD0002D6E000E2E6E000E2F6E2E8E06D0000E85
:100BE0002C6E000E2D6E000E2E6E000E2F6E2C50F1
:100BF0002D102E102F10D8A417D0000E286E000E26
:100C0000296E000E2A6E000E2B6E800E2A127F0EA9
:100C10002B1238502B1228C028F029C029F02AC0E6
:100C20002AF02BC02BF012003F50D8A409D0000EA0
:100C3000286E000E296E000E2A6E000E2B6E12001A
:100C400040503FC030F0316A305E000E315A7F0EA6
:100C50003024396E000E31203A6E28C034F029C09D
:100C600035F02AC036F02BC037F0000E286E000E8B
:100C7000296E000E2A6E000E2B6E000E3B6E000ECB
:100C80003C6E000E3D6E000E3E6E000E406E28D093
:100C90004050D8B411D0D890343635363636373641
:100CA000D890283629362A362B363EBE2880D89052
:100CB0003B363C363D363E362C50345C2D50355854
:100CC0002E5036582F503758D8A009D03E8C2C5073
:100CD000345E2D50355A2E50365A2F50375A402AEE
:100CE000190E4064D5D73450351036103710D8B4AB
:100CF00011D03B800FD0D890283629362A362B3693
:100D00003EBE2880D8903B363C363D363E363906CE
:100D1000D8A03A062AAEEFD7000E406E3EAE17D0EE
:100D2000FF0E3B14306EFF0E3C14316EFF0E3D146F
:100D3000326E7F0E3E14336E30503110321033104D
:100D4000D8B403D0010E406E02D028B0FBD740507B
:100D5000D8B41FD0010E2826000E29222A222B22C9
:100D60002BA017D028C030F029C031F02AC032F0B3
:100D70002BC033F03334333232323132303230C080
:100D800028F031C029F032C02AF033C02BF0394AA4
:100D90003A2A3ABE10D03A5003E13928D8A00BD0F5
:100DA000000E3A6E3968000E286E000E296E000E95
:100DB0002A6E000E2B6E3ABE05D03A5011E139046E
:100DC000D8B00ED0000E3A6E000E396E000E286EAE
:100DD000000E296E000E2A6E000E2B6E000E386E6D
:100DE00039C03FF03FA002D02A8E01D02A9ED89071
:100DF0003F302B6E0ED7096E0950D8A404AE1AD01E
:100E000001C005F002C006F003C007F004C008F0FE
:100E1000051E061E071E081E052A000E06220722B2
:100E2000082205C00BF006C00CF007C00DF008C08A
:100E30000EF008D001C00BF002C00CF003C00DF0A2
:100E400004C00EF00150021003100410D8A409D001
:100E5000000E016E000E026E000E036E000E046E98
:100E60001200960E0A6E06D00A2AD8900E320D3263
:100E70000C320B32000E0B14056E000E0C14066EB5
:100E8000000E0D14076EFE0E0E14086E05500610AF
:100E900007100810D8B40DD0E7D70A2A010E0B2688
:100EA000000E0C220D220E22D8900E320D320C3282
:100EB0000B32000E0B14056E000E0C14066E000EA5
:100EC0000D14076EFF0E0E14086E05500610071065
:100ED0000810D8B407D0E1D70A06D8900B360C36E4
:100EE0000D360E360DBE03D0020E0A60F5D70AA0ED
:100EF0000D9ED8900A320AC005F0066A076A086A91
:100F000005C008F0076A066A056A05500B1206500C
:100F10000C1207500D1208500E120950D8A404AE3E
:100F200001D00E8E0BC001F00CC002F00DC003F01A
:100F30000EC004F01200000E4E6E000E4F6E000E3A
:100F4000506E000E516E000E536E000E526E4AEC43
:100F500008F0530ED36E940EC06E000EC16E000EDC
:100F6000896E000E926E000E0F015B6F040E946E80
:100F7000040E5D6F390EC26EF28EF28C9D8CC282B1
:100F800052C001F053C002F037EC08F001C052F03B
:100F900002C053F052C041F053C042F0D8904232E8
:100FA0004132D890423241324150806E000E136E71
:100FB000000E146EA00E156E400E166E52C001F09B
:100FC00053C002F0036A046A000EFBEC06F001C095
:100FD0000FF002C010F003C011F004C012F00EECCC
:100FE00004F00FC028F010C029F011C02AF012C080
:100FF0002BF0000E2C6EC00E2D6E7F0E2E6E440E4A
:101000002F6EB7EC05F028C04EF029C04FF02AC073
:1010100050F02BC051F0B3D7A40EF66E100EF76E41
:10102000000EF86E00EE43F010EE0BF00900F5CF65
:10103000EEFFE550E150FAE100EE80F012EE2EF006
:10104000EE6AE550E150FCE1E250FAE100EE60F0BA
:10105000200EEE6AE806FDE1596A586A576A566A38
:10106000556A546A000EF86E00019BEF07F09EACC3
:101070000AD09D9CC450046E036AC3500324016EC1
:10108000000E0420026E9D8C9E9C01C001F002C0E7
:1010900002F01200000E896E000E926E000E0F011B
:0F10A0005B6F12007E306D79335B5F707F730181
:020000040020DA
:08000000FFFFFFFFFFFFFFFF00
:020000040030CA
:0E00000000285F3CFFD185FF0FC00FE00F40CE
:00000001FF
