:020000040000FA
:0400000036EF2DF0BA
:1008000000222A2B2C3A3B3C3D3E3F5B5D7C7F0027
:100810004265654465762E747874000045C0D9FF42
:1008200046C0DAFF000EDE6E000EDD6E47C001F03E
:1008300048C002F07CEC27F001C080F002C081F0DB
:10084000000181AF02D00B0E1200D8908035D96E16
:100850008135DA6EDC0ED926000EDA22DECF98F072
:10086000DDCF99F098519911D8A402D00C0E120046
:1008700045C0D9FF46C0DAFF98C0DEFF99C0DDFF52
:1008800098C0D9FF99C0DAFFDF50D8B415D020EE58
:1008900001F09851D9269951DA22DF5090EC2EF0D0
:1008A00000018C6F8CB108D04950D8A48CA502D01F
:1008B0000A0E1200000E120098C0D9FF99C0DAFF8C
:1008C000000EDF6E20EE01F09851D9269951DA2200
:1008D00080C0DFFF20EE01F09851D9269951DA222D
:1008E000DF5097EC20F000018C6F8CA102D0030E3A
:1008F00012004950D8B402D08CB5DAD7000E916FEF
:10090000000E926F000E936F000E946F98C03BF034
:1009100099C03CF0000E3D6E000E3E6E000E3F6E24
:10092000000E406E06EC27F00001976F9705D8A4E3
:10093000AED0000E966F000E956F96515AE1040EE0
:10094000955DD8B056D095C04AF096C04BF04A3A63
:100950004B3AF00E4B164A500F0B4B12F00E4A1644
:1009600098C04CF099C04DF04A504C264B504D2247
:10097000EC0E4C247A6F010E4D207B6F20EE04F0BC
:100980007A51D9267B51DA22DF50D8A409D0000E43
:10099000706F000E716F000E726F000E736F0ED0CD
:1009A00020EE08F07A51D9267B51DA22DECF70F0A2
:1009B000DECF71F0DECF72F0DECF73F0600E4A6EE4
:1009C000000E4B6ED8909535D96E9635DA6ED8906C
:1009D000D936DA364A50D9264B50DA2270C0DEFFBB
:1009E00071C0DEFF72C0DEFF73C0DEFF954B962B39
:1009F000A4D7000E966F000E956F95519611D8B43E
:100A000003D09507D8A09607600E4A6E000E4B6E75
:100A1000D8909535D96E9635DA6ED890D936DA36C3
:100A20004A50D9264B50DA22DECF91F0DECF92F039
:100A3000DECF93F0DECF94F0915192119311941187
:100A4000D8A405D0000E756F020E746F13D098C035
:100A50003BF099C03CF091C03DF092C03EF093C095
:100A60003FF094C040F006EC27F04A6E4A50000177
:100A7000746F756B74C097F09751D8B408D0954BCC
:100A8000962B965104E1040E955DD8A0BDD7030EB8
:100A90009719D8A402D0010E12009751D8B402D0F1
:100AA0000D0E120020EE39F09851D9269951DA2214
:100AB000DE50F6E1020EDE18D8A4F2D720EE44F0A4
:100AC0009851D9269951DA22DECF4AF0DDCF4BF08A
:100AD0004AC08DF04BC08EF08F6B906B8D518E1194
:100AE0008F119011D8A40ED020EE52F09851D92633
:100AF0009951DA22DECF8DF0DECF8EF0DECF8FF08F
:100B0000DECF90F020EE16F09851D9269951DA22D6
:100B10008DC0DEFF8EC0DEFF8FC0DEFF90C0DEFF27
:100B200020EE3EF09851D9269951DA2210EE03F0CA
:100B30009851E1269951E222DFCFE7FF20EE03F042
:100B40009851D9269951DA22DE04D8B40AD020EE81
:100B500003F09851D9269951DA22020EDE18D8A452
:100B60009FD78DC001F08EC002F08FC003F090C0FF
:100B700004F020EE03F09851D9269951DA22DF5083
:100B80004A6E4A50056E066A076A086A61EC2DF0E3
:100B900001C08DF002C08EF003C08FF004C090F051
:100BA000000120EE3BF09851D9269951DA2210EE3F
:100BB00002F09851E1269951E222DFCFE7FF20EEC3
:100BC00002F09851D9269951DA22DF50D8B468D76B
:100BD000FF0E4A6EFF0E4B6E20EE02F09851D926A2
:100BE0009951DA22DF504C6E4D6A4A504C264B50D8
:100BF0004D2220EE02F09851D9269951DA22DF5089
:100C00004E6E4E504C16000E4D164C504D10D8A442
:100C100047D720EE3FF09851D9269951DA2210EEAD
:100C200008F09851E1269951E222DECFE6FFDDCFB0
:100C3000E5FF20EE08F09851D9269951DA22DECF4F
:100C40004AF0DDCF4BF00F0E4A16000E4B164A50FD
:100C50004B10D8A425D720EE41F09851D9269951B0
:100C6000DA22DECF4AF0DDCF4BF04AC084F04BC031
:100C700085F0866B876B8451851186118711D8A406
:100C80000ED020EE4EF09851D9269951DA22DECFBF
:100C900084F0DECF85F0DECF86F0DECF87F020EE69
:100CA0003CF09851D9269951DA22DECF82F0DDCF7F
:100CB00083F082518311D8B4F3D620EE08F0985116
:100CC000D9269951DA22DECF4AF0DDCF4BF0040E5F
:100CD0004C6ED8904B324A324C2EFBD782514A246C
:100CE0004D6E83514B204E6E4F6AD8B04F2A506ADA
:100CF0008D514D247C6F8E514E207D6F8F514F2032
:100D00007E6F905150207F6F7C51845D7D5185595D
:100D10007E5186597F518759D8A0C2D67C51845DB7
:100D2000016E7D518559026E7E518659036E7F5149
:100D30008759046E20EE02F09851D9269951DA2293
:100D4000DF504A6E4A50056E066A076A086A33EC3D
:100D50002BF001C088F002C089F003C08AF004C003
:100D60008BF00001885189118A118B11D8B498D663
:100D7000010E976F8B518A1106E1F60E885D0F0EFA
:100D80008959D8A002D0020E976F8B518A1106E1C3
:100D9000F60E885DFF0E8959D8A002D0030E976F1A
:100DA000020E88254A6E000E89214B6E000E8A21A4
:100DB0004C6E000E8B214D6E20EE12F09851D9260C
:100DC0009951DA224AC0DEFF4BC0DEFF4CC0DEFF85
:100DD0004DC0DEFF20EE1AF09851D9269951DA2243
:100DE00091C0DEFF92C0DEFF93C0DEFF94C0DEFF45
:100DF000825191254A6E835192214B6E000E9321B0
:100E00004C6E000E94214D6E20EE1EF09851D926A6
:100E10009951DA224AC0DEFF4BC0DEFF4CC0DEFF34
:100E20004DC0DEFF7C5191254A6E7D5192214B6E63
:100E30007E5193214C6E7F5194214D6E20EE26F011
:100E40009851D9269951DA224AC0DEFF4BC0DEFF05
:100E50004CC0DEFF4DC0DEFF030E9719D8A43DD075
:100E600020EE08F09851D9269951DA22DE50DE1092
:100E7000D8A416D620EE5AF09851D9269951DA22E4
:100E800010EE22F09851E1269951E222DECFE6FFE2
:100E9000DECFE6FFDECFE6FFDECFE6FF20EE12F08C
:100EA0009851D9269951DA22DECF4AF0DECF4BF0A5
:100EB000DECF4CF0DECF4DF0020ED8904A364B36E6
:100EC0004C364D36E82EF9D74AC076F04BC077F055
:100ED0004CC078F04DC079F091D020EE08F09851D8
:100EE000D9269951DA22DE50DE10D8B4D9D520EEB9
:100EF0001EF09851D9269951DA22DECF4AF0DECF82
:100F00004BF0DECF4CF0DECF4DF08D514A244E6ECB
:100F10008E514B204F6E8F514C20506E90514D2072
:100F2000516E20EE22F09851D9269951DA224EC006
:100F3000DEFF4FC0DEFF50C0DEFF51C0DEFF020EFD
:100F40009719D8B444D020EE12F09851D92699516F
:100F5000DA22DECF4AF0DECF4BF0DECF4CF0DECF30
:100F60004DF0010E4A144E6E000E4B144F6E000EE3
:100F70004C14506E000E4D14516E20EE12F098512C
:100F8000D9269951DA22DECF01F0DECF02F0DECF92
:100F900003F0DECF04F0030E056E000E066E000EA9
:100FA000076E000E086E61EC2DF0D890043203320B
:100FB000023201324E5001240001766F4F50022060
:100FC000776F50500320786F5150042016D020EED8
:100FD00012F09851D9269951DA22DECF4AF0DECFAD
:100FE0004BF0DECF4CF0DECF4DF0D8904A34766F28
:100FF0004B34776F4C34786F4D34796FFF0E762514
:101000004A6E010E77214B6E000E78214C6E000E59
:1010100079214D6E0A0E05D0D8904D324C324B32AC
:101020004A32E82EF9D720EE16F09851D926995178
:10103000DA224A50DE5C4B50DE584C50DE584D50A0
:10104000DE58D8A02DD520EE0EF09851D926995112
:10105000DA22FF0EDE6EFF0EDE6EFF0EDE6EFF0E7C
:10106000DD6EDD52DD5210EE0AF09851E126995105
:10107000E222DECFE6FFDECFE6FFDECFE6FFDECF09
:10108000E6FF20EE05F09851D9269951DA22800E1C
:10109000DF6E030E9719D8A483D020EE5EF098512E
:1010A000D9269951DA22DE04DE10D8A479D098C06E
:1010B00030F099C031F0010E9125326E000E922170
:1010C000336E000E9321346E000E9421356E96EC33
:1010D0002AF00009D8A464D0000120EE05F0985150
:1010E000D9269951DA22000EDF6E22EE2CF09851AB
:1010F000D9269951DA22550EDE1852E1AA0EDE18D1
:10110000D8A44ED020EE2EF09851D9269951DA224B
:10111000520EDE1845E1520EDE1842E1610EDE1875
:101120003FE1410EDE18D8A43BD022EE12F09851D8
:10113000D9269951DA22720EDE1832E1720EDE18CB
:101140002FE1410EDE182CE1610EDE18D8A428D064
:1011500022EE16F09851D9269951DA2210EE0EF0AF
:101160009851E1269951E222DECFE6FFDECFE6FF7D
:10117000DECFE6FFDECFE6FF22EE1AF09851D92649
:101180009951DA2210EE0AF09851E1269951E222A3
:10119000DECFE6FFDECFE6FFDECFE6FFDECFE6FF07
:1011A00098C0D9FF99C0DAFF97C0DFFF0001DA4B82
:1011B000DB2B20EE06F09851D9269951DA22DAC0BD
:1011C000DEFFDBC0DDFF5AEF04F06FC082F070C0BD
:1011D00083F073C0D9FF74C0DAFF000EDE6E000E1C
:1011E000DD6E6DC002F06EC003F0E9EC2AF0000184
:1011F000816F8151D8A4120020EE05F06D51D926DF
:101200006E51DA22DF50D8A4120020EE04F06D51A6
:10121000D9266E51DA22DFA2120020EE06F06D51BF
:10122000D9266E51DA2210EE06F06D51E1266E518C
:10123000E222E6CF79F0E6CF7AF0E6CF7BF0E6CF98
:101240007CF0715179257D6F72517A217E6F000E8D
:101250007B217F6F000E7C21806FDE507D5DDE5034
:101260007E59DE507F59DE508059D8B029D3000E08
:10127000726F000E716F24D320EE06F06D51D926E7
:101280006E51DA22FF0EDE14756F010EDE14766FDA
:10129000000EDE14776F000EDE14786F7551761134
:1012A00077117811D8A46AD220EE06F06D51D926B4
:1012B0006E51DA22DECF75F0DECF76F0DECF77F03A
:1012C000DECF78F00A0E05D0D890783377337633B6
:1012D0007533E82EF9D76DC0D9FF6EC0DAFF10EE76
:1012E00002F0DE50E126DD50E222E750796F790509
:1012F0007515846F8451D8A4A3D020EE06F06D51EB
:10130000D9266E51DA22DE50DE10DE10DE10D8A4AF
:1013100027D020EE0EF06D51D9266E51DA22DECFA5
:101320008BF0DECF8CF0DECF8DF0DECF8EF08B51E8
:101330008C118D118E11D8A433D06DC0D9FF6EC021
:10134000DAFFDECF56F0DDCF57F0000E586E000EFC
:10135000596E000E5A6E000E5B6E77EC1CF018D0C2
:101360006DC0D9FF6EC0DAFFDECF56F0DDCF57F08B
:1013700020EE12F06D51D9266E51DA22DECF58F0F0
:10138000DECF59F0DECF5AF0DECF5BF077EC1CF009
:1013900056C08BF057C08CF058C08DF059C08EF0FD
:1013A00000018B518C118D118E11D8B48DD28B050B
:1013B0008C118D118E11D8A409D020EE05F06D513D
:1013C000D9266E51DA22020EDF6E12008B2910E14F
:1013D0008C290EE18D290CE18E29D8A409D020EEAC
:1013E00005F06D51D9266E51DA22010EDF6E120022
:1013F00020EE12F06D51D9266E51DA228BC0DEFF3D
:101400008CC0DEFF8DC0DEFF8EC0DEFF20EE0EF052
:101410006D51D9266E51DA22DE50DE10DE10DE105C
:10142000D8A40ED020EE0EF06D51D9266E51DA22DE
:101430008BC0DEFF8CC0DEFF8DC0DEFF8EC0DEFF06
:1014400020EE16F06D51D9266E51DA226DC0E1FF03
:101450006EC0E2FF00EE2AF0E650E926E550EA22EF
:10146000DE50EE1821E1DE50EE181EE1DE50EE18DF
:101470001BE1DE50EE18D8A417D06DC0D9FF6EC0A6
:10148000DAFFDECF1BF0DDCF1CF06CEC22F00009A0
:10149000D8B40AD0000120EE05F06D51D9266E5166
:1014A000DA22010EDF6E12006DC0D9FF6EC0DAFFC6
:1014B000DECF0DF0DDCF0EF0000120EE12F06D5109
:1014C000D9266E51DA22DECF0FF0DECF10F0DECF5C
:1014D00011F0DECF12F08EEC29F00DC087F00EC0B7
:1014E00088F00FC089F010C08AF000018751881180
:1014F00089118A11D8A409D020EE05F06D51D926A2
:101500006E51DA22020EDF6E120084518727000E20
:10151000882389238A2371C075F072C076F0090E82
:10152000776FD89076337533772FFBD775C085F0FA
:1015300076C086F085518611D8B4D2D084518525E5
:10154000756F000E8621766F6DC0D9FF6EC0DAFF11
:1015500010EE02F0DE50E126DD50E222E750776F18
:10156000786B7551775D76517859D8B012D06DC0CF
:10157000D9FF6EC0DAFF10EE02F0DE50E126DD503A
:10158000E222E750756F8451755D856F866BD8A038
:10159000860782C011F083C012F087C013F088C0A4
:1015A00014F089C015F08AC016F085C017F086C007
:1015B00018F06DC0D9FF6EC0DAFF10EE01F0DE50FA
:1015C000E126DD50E222E75090EC25F00009D8B486
:1015D0000AD0000120EE05F06D51D9266E51DA22B5
:1015E000010EDF6E120000018551756F8651766F16
:1015F000776B786B6DC0D9FF6EC0DAFF10EE2AF002
:10160000DE50E126DD50E222E6CF79F0E6CF7AF037
:10161000E6CF7BF0E6CF7CF08751795D7D6F885116
:101620007A597E6F89517B597F6F8A517C59806FBF
:1016300075517D5D76517E5977517F59785180592A
:10164000D8B03ED06DC0D9FF6EC0DAFFDECF75F0E6
:10165000DDCF76F02E0E7525016E000E7621026E1E
:101660006DC0D9FF6EC0DAFF10EE2AF0DE50E12621
:10167000DD50E222E6CF77F0E5CF78F08751775F53
:101680008851785B090ED89077377837E82EFBD7EA
:1016900077518225036E78518321046E020E066E07
:1016A000000E056EF4EC2BF06DC0D9FF6EC0DAFFB2
:1016B00010EE04F0DE50E126DD50E222000EE76E6F
:1016C00085C075F086C076F0090ED8900001753798
:1016D0007637E82EFAD775C08FF076C090F0D2D06A
:1016E00020EE0AF06D51D9266E51DA2210EE06F086
:1016F0006D51E1266E51E222DE50E65CDE50E65886
:10170000DE50E658DE50E658D8A029D06DC0D9FF8B
:101710006EC0DAFFDECF1BF0DDCF1CF06CEC22F0E8
:101720000009D8B40AD0000120EE05F06D51D92689
:101730006E51DA22010EDF6E12006DC0D9FF6EC04D
:10174000DAFF10EE2AF0DE50E126DD50E22287C0FB
:10175000E6FF88C0E6FF89C0E6FF8AC0E6FF000119
:1017600020EE16F06D51D9266E51DA2287C0DEFFC9
:1017700088C0DEFF89C0DEFF8AC0DEFFFF0E756F06
:10178000010E766F20EE06F06D51D9266E51DA22E9
:10179000DECF77F0DDCF78F0755177177651781777
:1017A000775100088F6F7851D8A0E82A0208906F0F
:1017B0008F51715D90517259D8B004D071C08FF0C3
:1017C00072C090F06DC0D9FF6EC0DAFFDECF30F08E
:1017D000DDCF31F020EE16F06D51D9266E51DA22B0
:1017E000DECF32F0DECF33F0DECF34F0DECF35F0B7
:1017F00096EC2AF00009D8B40AD0000120EE05F0DA
:101800006D51D9266E51DA22010EDF6E1200FF0EE5
:101810000001756F010E766F20EE06F06D51D9262E
:101820006E51DA22DECF77F0DDCF78F07551771781
:10183000765178176DC0D9FF6EC0DAFFDECF79F030
:10184000DDCF7AF07751792778517A232E0E7925DA
:10185000016E000E7A21026E82C003F083C004F094
:101860008FC005F090C006F0F4EC2BF06DC0D9FFEE
:101870006EC0DAFF10EE04F0DE50E126DD50E22209
:10188000010EE76E00018F5182279051832320EED5
:1018900006F06D51D9266E51DA228F51DE26905115
:1018A000DE22000EDE22DE2273C0D9FF74C0DAFF12
:1018B0008F51DE269051DD228F51715F9051725B06
:1018C00071517211D8A4D8D420EE06F06D51D926EA
:1018D0006E51DA2210EE0AF06D51E1266E51E222CD
:1018E000DE50E65CDE50E658DE50E658DE50E65844
:1018F000D8B014D020EE06F06D51D9266E51DA2200
:1019000010EE0AF06D51E1266E51E222DECFE6FFC5
:10191000DECFE6FFDECFE6FFDECFE6FF20EE04F00F
:101920006D51D9266E51DA22000EDB8A12006DC08D
:1019300002F06EC003F0E9EC2AF00001876F8751D6
:10194000D8B402D08751120020EE05F06D51D9268F
:101950006E51DA22DF50D8B408D020EE05F06D5178
:10196000D9266E51DA22DF50120020EE0AF06D51B6
:10197000D9266E51DA226F51DE5C7051DE587151FA
:10198000DE587251DE58D8B016D020EE04F06D51FA
:10199000D9266E51DA22DFB20ED020EE0AF06D5158
:1019A000D9266E51DA22DECF6FF0DECF70F0DECFB7
:1019B00071F0DECF72F020EE06F06D51D9266E5137
:1019C000DA22DECF83F0DECF84F0DECF85F0DECF0B
:1019D00086F0000E886F000E896F000E8A6F000E71
:1019E0008B6F20EE06F06D51D9266E51DA2288C039
:1019F000DEFF89C0DEFF8AC0DEFF8BC0DEFF6F51D5
:101A0000701171117211D8B42DD26DC0D9FF6EC092
:101A1000DAFF10EE02F0DE50E126DD50E222E75060
:101A2000736F73C074F0756B766B776B090ED8901B
:101A30007437753776377737E82EF9D774C08CF05E
:101A400075C08DF076C08EF077C08FF08351841111
:101A500085118611D8B497D0FF0E6F25016EFF0E49
:101A60007021026EFF0E7121036EFF0E7221046E53
:101A70008CC005F08DC006F08EC007F08FC008F056
:101A800033EC2BF001C073F002C074F003C075F0AA
:101A900004C076F0FF0E00018325016EFF0E842145
:101AA000026EFF0E8521036EFF0E8621046E8CC030
:101AB00005F08DC006F08EC007F08FC008F033EC43
:101AC0002BF001500001735D025074590350755999
:101AD00004507659D8A057D0FF0E8C25736FFF0E97
:101AE0008D21746FFF0E8E21756FFF0E8F21766F23
:101AF000731D776F741D786F751D796F761D7A6F02
:101B0000FF0E83257B6FFF0E84217C6FFF0E8521E6
:101B10007D6FFF0E86217E6F77517B157F6F785129
:101B20007C15806F79517D15816F7A517E15826F9A
:101B300020EE06F06D51D9266E51DA227FC0DEFF0D
:101B400080C0DEFF81C0DEFF82C0DEFF20EE06F037
:101B50006D51D9266E51DA22DE506F5FDE50705B18
:101B6000DE50715BDD50725B20EE12F06D51D926B4
:101B70006E51DA22DECF90F0DECF91F0DECF92F020
:101B8000DECF93F06ED020EE0EF06D51D9266E515F
:101B9000DA22DECF90F0DECF91F0DECF92F0DECF12
:101BA00093F09051911192119311D8A44CD06DC023
:101BB000D9FF6EC0DAFFDECF56F0DDCF57F0000E52
:101BC000586E000E596E000E5A6E000E5B6E77EC6A
:101BD0001CF056C090F057C091F058C092F059C018
:101BE00093F000019005911192119311D8A40AD09D
:101BF00020EE05F06D51D9266E51DA22020EDF6E0D
:101C0000020E1200902911E191290FE192290DE1B4
:101C10009329D8A40AD020EE05F06D51D9266E5133
:101C2000DA22010EDF6E010E120020EE0EF06D5171
:101C3000D9266E51DA2290C0DEFF91C0DEFF92C03D
:101C4000DEFF93C0DEFF20EE12F06D51D9266E51FB
:101C5000DA2290C0DEFF91C0DEFF92C0DEFF93C0AB
:101C6000DEFF9051911192119311D8A497D0FAD020
:101C700020EE04F06D51D9266E51DA22DFA22AD06F
:101C80006DC0D9FF6EC0DAFFDECF56F0DDCF57F062
:101C900090C058F091C059F092C05AF093C05BF0D8
:101CA00077EC1CF056C090F057C091F058C092F0FD
:101CB00059C093F000019051911192119311D8A441
:101CC00023D08CC06FF08DC070F08EC071F08FC0CB
:101CD00072F06ED06DC0D9FF6EC0DAFFDECF3BF080
:101CE000DDCF3CF090C03DF091C03EF092C03FF09F
:101CF00093C040F0DBEC18F03BC090F03CC091F09A
:101D00003DC092F03EC093F00001902907E1912977
:101D100005E1922903E19329D8B47DD7935192111B
:101D2000911104E1020E905DD8A062D76DC0D9FF79
:101D30006EC0DAFF10EE12F0DE50E126DD50E22236
:101D4000E650905DE6509159E6509259E65093590D
:101D5000D8B04ED720EE12F06D51D9266E51DA224E
:101D600090C0DEFF91C0DEFF92C0DEFF93C0DEFFB9
:101D700020EE06F06D51D9266E51DA228C51DE2606
:101D80008D51DE228E51DE228F51DE228C516F5F0B
:101D90008D51705B8E51715B8F51725B6F518C5D99
:101DA00070518D5971518E5972518F59D8A060D789
:101DB00020EE06F06D51D9266E51DA226F51DE26E3
:101DC0007051DE227151DE227251DE22FF0E6F153C
:101DD000736F010E7015746F000E7115756F000E24
:101DE0007215766F7351741175117611D8B43AD09B
:101DF0006DC0D9FF6EC0DAFFDECF0DF0DDCF0EF083
:101E000090C00FF091C010F092C011F093C012F08A
:101E10008EEC29F00DC088F00EC089F00FC08AF05A
:101E200010C08BF00001885189118A118B11D8B430
:101E3000DFD66FC073F070C074F071C075F072C0FF
:101E400076F00A0E05D0D890763375337433733339
:101E5000E82EF9D7735188277451892375518A2345
:101E600076518B2320EE06F06D51D9266E51DA2281
:101E7000FF0EDE14736F010EDE14746F000EDE149D
:101E8000756F000EDE14766F735174117511761133
:101E9000D8B421D020EE16F06D51D9266E51DA2239
:101EA0008851DE180AE18951DE1807E18A51DE18EF
:101EB00004E18B51DE18D8B40ED020EE16F06D512F
:101EC000D9266E51DA2288C0DEFF89C0DEFF8AC0C3
:101ED000DEFF8BC0DEFF20EE06F06D51D9266E517D
:101EE000DA2210EE0AF06D51E1266E51E222DE5048
:101EF000E65CDE50E658DE50E658DE50E658D8B0D4
:101F000021D520EE06F06D51D9266E51DA2210EE61
:101F10000AF06D51E1266E51E222DECFE6FFDECF00
:101F2000E6FFDECFE6FFDECFE6FF20EE04F06D51E8
:101F3000D9266E51DA22000EDB8A04D558C075F01E
:101F400059C076F05CC0D9FF5DC0DAFF000EDE6ECE
:101F5000000EDD6E56C002F057C003F0E9EC2AF027
:101F600000016C6F6C51D8A4120020EE05F05650A1
:101F7000D9265750DA22DF50D8A4120020EE04F000
:101F80005650D9265750DA22DFA0120020EE06F074
:101F90005650D9265750DA22DECF60F0DECF61F0FE
:101FA000DECF62F0DECF63F020EE0AF05650D92685
:101FB0005750DA22DECF64F0DECF65F0DECF66F078
:101FC000DECF67F06051645D6D6F615165596E6F72
:101FD000625166596F6F63516759706F5A50606FE5
:101FE0005B50616F626B636B60516D5D61516E59E7
:101FF00062516F5963517059D8B071D26DC05AF0A7
:102000006EC05BF06CD220EE06F05650D9265750C9
:10201000DA22FF0EDE14606F010EDE14616F000E17
:10202000DE14626F000EDE14636F60516111621185
:102030006311D8A4BFD120EE06F05650D9265750D0
:10204000DA22DECF60F0DECF61F0DECF62F0DECFED
:1020500063F00A0E05D0D890633362336133603386
:10206000E82EF9D756C0D9FF57C0DAFF10EE02F0BC
:10207000DE50E126DD50E222E750646F6405601512
:10208000776F7751D8A46DD020EE06F05650D92640
:102090005750DA22DE50DE10DE10DE10D8A40FD04A
:1020A00020EE0EF05650D9265750DA22DECF71F0CE
:1020B000DECF72F0DECF73F0DECF74F020D056C0EA
:1020C000D9FF57C0DAFFDECF3BF0DDCF3CF020EE8A
:1020D00012F05650D9265750DA22DECF3DF0DECF2F
:1020E0003EF0DECF3FF0DECF40F0DBEC18F03BC03F
:1020F00071F03CC072F03DC073F03EC074F000015E
:102100007451731172110DE1020E715DD8B009D0D6
:1021100020EE05F05650D9265750DA22020EDF6E17
:102120001200712910E172290EE173290CE1742962
:10213000D8A409D020EE05F05650D9265750DA22FF
:10214000010EDF6E120020EE12F05650D9265750C5
:10215000DA2271C0DEFF72C0DEFF73C0DEFF74C022
:10216000DEFF56C0D9FF57C0DAFFDECF0DF0DDCF5E
:102170000EF020EE12F05650D9265750DA22DECF5C
:102180000FF0DECF10F0DECF11F0DECF12F08EECCC
:1021900029F00DC078F00EC079F00FC07AF010C0B1
:1021A0007BF00001785179117A117B11D8A409D004
:1021B00020EE05F05650D9265750DA22020EDF6E77
:1021C000120077517827000E79237A237B235AC097
:1021D00060F05BC061F0090E626FD89061336033CC
:1021E000622FFBD760C07CF061C07DF07C517D1117
:1021F000D8B4D2D077517C25606F000E7D21616FFD
:1022000056C0D9FF57C0DAFF10EE02F0DE50E126CB
:10221000DD50E222E750626F636B6051625D615195
:102220006359D8B012D056C0D9FF57C0DAFF10EEAC
:1022300002F0DE50E126DD50E222E750606F775178
:10224000605D7C6F7D6BD8A07D0775C011F076C096
:1022500012F078C013F079C014F07AC015F07BC08A
:1022600016F07CC017F07DC018F056C0D9FF57C0DB
:10227000DAFF10EE01F0DE50E126DD50E222E750F9
:10228000C3EC28F00009D8B409D020EE05F0565070
:10229000D9265750DA22010EDF6E120056C0D9FF40
:1022A00057C0DAFF10EE04F0DE50E126DD50E222E6
:1022B000E750D8B461D000017C51606F7D51616FEF
:1022C000626B636B56C0D9FF57C0DAFF10EE2AF07D
:1022D000DE50E126DD50E222E6CF64F0E6CF65F085
:1022E000E6CF66F0E6CF67F07851645D686F7951AC
:1022F0006559696F7A5166596A6F7B5167596B6F7F
:102300006051685D6151695962516A5963516B59F5
:10231000D8B032D056C0D9FF57C0DAFF10EE2AF03D
:10232000DE50E126DD50E222E6CF60F0E5CF61F03D
:102330007851605F7951615B090ED89060376137E1
:10234000E82EFBD760517525016E61517621026E32
:1023500056C0D9FF57C0DAFFDECF62F0DDCF63F0A1
:102360002E0E6225036E000E6321046E020E066EB1
:10237000000E056EF4EC2BF07CC060F07DC061F0C7
:10238000090ED890000160376137E82EFAD760C097
:102390007EF061C07FF085D020EE16F05650D92631
:1023A0005750DA2278C0DEFF79C0DEFF7AC0DEFF48
:1023B0007BC0DEFFFF0E606F010E616F20EE06F046
:1023C0005650D9265750DA22DECF62F0DDCF63F0C7
:1023D0006051621761516317625100087E6F63514B
:1023E000D8A0E82A02087F6F7E515A5C7F515B5863
:1023F000D8B004D05AC07EF05BC07FF056C0D9FF81
:1024000057C0DAFFDECF30F0DDCF31F020EE16F02E
:102410005650D9265750DA22DECF32F0DECF33F0D5
:10242000DECF34F0DECF35F096EC2AF00009D8B4D8
:1024300009D020EE05F05650D9265750DA22010E69
:10244000DF6E120075C001F076C002F0FF0E0001D1
:10245000606F010E616F20EE06F05650D92657507E
:10246000DA22DECF62F0DDCF63F060516217615196
:10247000631756C0D9FF57C0DAFFDECF64F0DDCF57
:1024800065F062516427635165232E0E6425036E47
:10249000000E6521046E7EC005F07FC006F0F4ECEE
:1024A0002BF000017E5175277F51762320EE06F038
:1024B0005650D9265750DA227E51DE267F51DE2231
:1024C000000EDE22DE225CC0D9FF5DC0DAFF7E5145
:1024D000DE267F51DD227E515A5E7F515B5A5A5073
:1024E0005B10D8B412008FD5316E12C038F013C013
:1024F00039F03150D8B402D0040E1200010E366EFD
:102500000001F2A11BD2030E120076EC2EF000099E
:10251000D8B435D2000E10D2000E0B6E000E0C6E29
:10252000000E0D6E000E0E6E090EB0EC2DF00009BF
:10253000D8A425D2210E026E000E036E000E056E89
:10254000100E046E69EC2CF00009D8B418D22144A6
:10255000E846030BE806D8A44ED028C014F03F0E7E
:10256000141614C015F0166A176A186A16C018F007
:1025700015C017F0166A156A29501A6E196A2A5082
:102580001B6E1C6A19501B261A501C221B50152446
:102590001D6E1C5016201E6E000E17201F6E000EA2
:1025A0001820206E010E1D24326E000E1E20336E88
:1025B000000E1F20346E000E2020356E32C014F045
:1025C00033C015F034C016F035C017F00A0ED8909D
:1025D0001436153616361736E82EF9D712C0D9FF3D
:1025E00013C0DAFF14C0DEFF15C0DEFF16C0DEFF29
:1025F00017C0DEFF8FD7146A2BAE01D0142A010E4C
:10260000141626C015F00F0E15162A50030B020DD6
:10261000F35015241424020F376E2750030B146E49
:10262000156A0A0ED89014361536E82EFBD72850B6
:10263000166E176AD89016361736D8901636173693
:102640002944E846030B186E196A165018261750CD
:1026500019221450182615501922010E1826000EA2
:10266000192218C032F019C033F0346A356A37C005
:1026700014F0F70E142632C015F033C016F034C033
:1026800017F035C018F0142A05D0D8901536163634
:1026900017361836142EF9D73DD0DFA548D0000ED6
:1026A0000B6E000E0C6E000E0D6E000E0E6E8D0E7B
:1026B000B0EC2DF00009D8A462D1FF0EABEC2EF0E7
:1026C000210E026E000E036E000E056E100E046EDB
:1026D00069EC2CF00009D8B452D1300E376E04D01A
:1026E000FF0EABEC2EF037063750D8A4F9D72BC02D
:1026F00014F0143A0F0E1416100E156E166A176A9F
:10270000186A142A05D0D89015361636173618369A
:10271000142EF9D712C0D9FF13C0DAFF15C0DEFF9F
:1027200016C0DEFF17C0DEFF18C0DEFFF3D6000EB6
:102730000B6E000E0C6E000E0D6E000E0E6E090E6E
:10274000B0EC2DF00009D8A41AD1210E026E000EB3
:10275000036E000E056E100E046E69EC2CF000097D
:10276000D8B40DD10001DFA32AD02EC014F0060E7C
:10277000156ED8901432152EFCD7FF0E14262B5050
:102780003F0B166E176AD89016361736186A2CAE9D
:1027900001D0182A010E181618501626000E1722FE
:1027A000010E1626000E1722142A03D0D8901636D2
:1027B0001736142EFBD71650196E175034D02BC075
:1027C00014F0D8901432D89014321F0E1416010E43
:1027D0001424016E026A000E02222C50030B156EA7
:1027E000166AD89015361636D89015361636D89003
:1027F000153616362CC017F0050E186ED890173205
:10280000182EFCD7070E171617501526000E162285
:10281000010E1524036E000E1620046E53EC2EF0EC
:102820000150196E02501A6E1B6A1C6A12C0D9FF41
:1028300013C0DAFF19C0DEFF1AC0DEFF1BC0DEFFC7
:102840001CC0DEFF67D638C0D9FF39C0DAFFDFC051
:10285000DFFF60D6000E0B6E000E0C6E000E0D6ECC
:10286000000E0E6E090EB0EC2DF00009D8A487D032
:1028700038C002F039C003F0000E056E100E046E71
:1028800069EC2CF00009D8A445D679D0000E0B6E67
:10289000000E0C6E000E0D6E000E0E6E0A0EB0ECE9
:1028A0002DF00009D8A46BD038C002F039C003F075
:1028B000000E056E100E046E69EC2CF0E3D7000ECE
:1028C0000B6E000E0C6E000E0D6E000E0E6E3A0EAC
:1028D000B0EC2DF00009D8A452D0040E376E0BD006
:1028E000FF0EABEC2EF038C0D9FF39C0DAFFDF6E37
:1028F000384A392A37063750D8B40CD6F1D7000EEB
:102900000B6E000E0C6E000E0D6E000E0E6E8D0E18
:10291000B0EC2DF00009D8A432D0FF0EABEC2EF0B5
:1029200038C002F039C003F0000E056E400E046E90
:1029300069EC2CF0A7D7040E366E21D01150146E1E
:10294000156A1550000AD8A4F6D71450000AD8B456
:10295000DCD5010AD8B4E0D5020AD8B49ED6090A5B
:10296000D8B471D7010AD8B475D7070AD8B48ED7AE
:10297000010AD8B4A4D7030AD8B4C1D7DCD7CFECA6
:102980002EF03650120040503F103E1004E1020E6F
:102990003D5CD8A010D020EE12F03B50D9263C5020
:1029A000DA22DE503D5CDE503E58DE503F58DE50AD
:1029B0004058D8A0E5D1020E536EF8D13DC051F079
:1029C0003EC052F0D8905230466E5130456E455060
:1029D0005126465052223BC030F03CC031F020EE30
:1029E0001EF03B50D9263C50DA22DECF45F0DECF38
:1029F00046F0DECF47F0DECF48F051C049F052C07C
:102A00004AF0090E4B6ED8904A3249324B2EFBD712
:102A100049504524326E4A504620336E000E4720FE
:102A2000346E000E4820356E96EC2AF0536E5350EB
:102A3000D8A4BCD1FF0E456E010E466E51C047F0C2
:102A400052C048F045504716465048163BC049F022
:102A50003CC04AF04750492648504A222E0E49248D
:102A6000546E000E4A20556E514A522A3DB004D091
:102A700041C04DF04E6A1AD04150456E466A453A03
:102A8000463AF00E461645500F0B4612F00E45160C
:102A900054C0D9FF55C0DAFFDF500F0B476E486AAC
:102AA000455047104D6E465048104E6E54C0D9FFE9
:102AB00055C0DAFF4DC0DFFF20EE04F03B50D926B1
:102AC0003C50DA22010EDF6E3BC030F03CC031F0EA
:102AD00020EE1EF03B50D9263C50DA22DECF45F0E6
:102AE000DECF46F0DECF47F0DECF48F051C049F0F0
:102AF00052C04AF0090E4B6ED8904A3249324B2EE2
:102B0000FBD749504524326E4A504620336E000EA2
:102B10004720346E000E4820356E96EC2AF0536E36
:102B20005350D8A443D1FF0E456E010E466E51C0DE
:102B300047F052C048F045504716465048163BC033
:102B400049F03CC04AF04750492648504A222E0ED0
:102B50004924546E000E4A20556E3DB01BD041C032
:102B600045F042C046F043C047F044C048F046C07C
:102B700045F047C046F048C047F0486A0F0E45167A
:102B800054C0D9FF55C0DAFFDF50F00B4510496E35
:102B9000495012D041C045F042C046F043C047F012
:102BA00044C048F0050E05D0D8904832473246322E
:102BB0004532E82EF9D745504F6E506A54C0D9FFC0
:102BC00055C0DAFF4FC0DFFFD2D03BC030F03CC071
:102BD00031F020EE1EF03B50D9263C50DA22DECFF9
:102BE00045F0DECF46F0DECF47F0DECF48F03DC007
:102BF00049F03EC04AF03FC04BF040C04CF04AC0E4
:102C000049F04BC04AF04CC04BF04C6A4550492447
:102C1000326E46504A20336E47504B20346E485037
:102C20004C20356E96EC2AF0536E5350D8A4BED08B
:102C3000FF0E456E010E466E3DC047F03EC048F0A7
:102C4000D8904736483645504716465048163BC040
:102C500049F03CC04AF04750492648504A222E0EBF
:102C60004924546E000E4A20556E54C0D9FF55C0F9
:102C7000DAFF41C0DEFF42C0DDFF79D03BC030F05B
:102C80003CC031F020EE1EF03B50D9263C50DA22F9
:102C9000DECF45F0DECF46F0DECF47F0DECF48F0A6
:102CA0003DC049F03EC04AF03FC04BF040C04CF040
:102CB000080E05D0D8904C324B324A324932E82EB9
:102CC000F9D745504924326E46504A20336E47505A
:102CD0004B20346E48504C20356E96EC2AF0536EE3
:102CE0005350D8A463D0FF0E456E010E466E3DC012
:102CF00047F03EC048F0D89047364836D89047361F
:102D0000483645504716465048163BC049F03CC02F
:102D10004AF04750492648504A222E0E4924546E04
:102D2000000E4A20556E54C0D9FF55C0DAFF000E80
:102D3000DE14456E000EDE14466E000EDE14476E85
:102D4000F00EDE14486E4550411246504212475074
:102D500043124850441254C0D9FF55C0DAFF41C055
:102D6000DEFF42C0DEFF43C0DEFF44C0DEFF20EED8
:102D700004F03B50D9263C50DA22010EDF6E16D00B
:102D80003BC0D9FF3CC0DAFFDF50456E466A465073
:102D9000000AD8A410D64550010AD8B40FD6030AA9
:102DA000D8B413D7010AD8B469D705D65350120046
:102DB000000120EE04F06D51D9266E51DA22DECFEB
:102DC00071F0DDCF72F0010E71257A6F000E722165
:102DD0007B6F7A517B11D8B40CD020EE0EF06D5180
:102DE000D9266E51DA22DE50DE10DE10DE10D8A4B5
:102DF00002D0040E12000F0E7A15716F000E7B15B3
:102E0000726F71517211D8A4A4D120EE0EF06D51E1
:102E1000D9266E51DA22DE2A000EDE22DE22DE22E2
:102E200020EE0AF06D51D9266E51DA22DE50DE1006
:102E3000DE10DE10D8A411D06DC0D9FF6EC0DAFF4D
:102E400010EE08F0DE50E126DD50E222E6507A5D19
:102E5000E6507B59D8B0CDD77CD17AC071F07BC019
:102E600072F0040E736FD89072337133732FFBD7E7
:102E7000FF0E746FFF0E756F6DC0D9FF6EC0DAFF65
:102E800010EE02F0DE50E126DD50E222E750766FD0
:102E9000776B74517627755177237151761772517C
:102EA000771776517711D8A454D16DC0D9FF6EC071
:102EB000DAFFDECF3BF0DDCF3CF020EE0AF06D51C3
:102EC000D9266E51DA22DECF3DF0DECF3EF0DECFE6
:102ED0003FF0DECF40F0DBEC18F03BC07CF03CC0B4
:102EE0007DF03DC07EF03EC07FF000017F517E113D
:102EF0007D1106E1020E7C5DD8B002D0020E1200F8
:102F00007C2909E17D2907E17E2905E17F29D8A4F3
:102F100002D0010E12006DC0D9FF6EC0DAFF10EEB4
:102F200012F0DE50E126DD50E222E6507C5DE650F4
:102F30007D59E6507E59E6507F59D8A0DBD06F51BD
:102F40007011D8B456D76DC0D9FF6EC0DAFFDECF8E
:102F500056F0DDCF57F020EE0AF06D51D9266E51B4
:102F6000DA22DECF58F0DECF59F0DECF5AF0DECFD6
:102F70005BF077EC1CF056C07CF057C07DF058C079
:102F80007EF059C07FF000017C517D117E117F11D0
:102F9000D8A402D0070E12007C057D117E117F118E
:102FA000D8B4ACD77C2907E17D2905E17E2903E16E
:102FB0007F29D8B4AED76DC0D9FF6EC0DAFFDECF9F
:102FC0001BF0DDCF1CF06CEC22F00009D8A4A1D7D7
:102FD0006DC0D9FF6EC0DAFFDECF71F0DDCF72F0C9
:102FE0002E0E00017125016E000E7221026E000E80
:102FF000046E000E036E020E066E000E056E28ECC7
:103000002EF06DC0D9FF6EC0DAFFDECF0DF0DDCF40
:103010000EF07CC00FF07DC010F07EC011F07FC0BC
:1030200012F08EEC29F06DC0D9FF6EC0DAFF10EE01
:103030002AF0DE50E126DD50E2220DC0E6FF0EC090
:10304000E6FF0FC0E6FF10C0E6FF000E0001796F3B
:10305000000E786F2BD06DC0D9FF6EC0DAFF10EE76
:1030600004F0DE50E126DD50E222010EE76E6DC075
:10307000D9FF6EC0DAFFDECF1BF0DDCF1CF06CECA9
:1030800022F00009D8A445D76DC0D9FF6EC0DAFF81
:1030900010EE2AF0DE50E126DD50E222E62A000E94
:1030A000E622E622E6220001784B792B6DC0D9FF9B
:1030B0006EC0DAFF10EE02F0DE50E126DD50E222B3
:1030C000E750716F726B7151785D72517959D8A068
:1030D000C2D76DC0D9FF6EC0DAFF10EE2AF0DE5005
:1030E000E126DD50E2227851E65E7951E65A000E83
:1030F000E65AE65A20EE0AF06D51D9266E51DA22D0
:103100007CC0DEFF7DC0DEFF7EC0DEFF7FC0DEFF55
:103110006DC0D9FF6EC0DAFFDECF0DF0DDCF0EF04F
:103120007CC00FF07DC010F07EC011F07FC012F0A7
:103130008EEC29F0000120EE0EF06D51D9266E5173
:10314000DA220DC0DEFF0EC0DEFF0FC0DEFF10C0B2
:10315000DEFF20EE04F06D51D9266E51DA227AC0DE
:10316000DEFF7BC0DDFF0F0E7A15716F000E7B1541
:10317000726F050ED89071377237E82EFBD76DC08D
:10318000D9FF6EC0DAFFDECF73F0DDCF74F071517E
:103190007327725174232E0E7327000E742320EEB2
:1031A00012F06D51D9266E51DA2273C0DEFF74C061
:1031B000DDFF000E120040503F103E1004E1020EF1
:1031C0003D5CD8A010D020EE12F03B50D9263C50E8
:1031D000DA22DE503D5CDE503E58DE503F58DE5075
:1031E0004058D8A008D0010E4C6E000E4D6E000E57
:1031F0004E6E000E90D14C684D684E684F688DD170
:103200003DC054F03EC055F0D8905530426E543019
:10321000416E41505426425055223BC030F03CC0D4
:1032200031F020EE1EF03B50D9263C50DA22DECFA2
:1032300041F0DECF42F0DECF43F0DECF44F054C0A9
:1032400045F055C046F0090E476ED89046324532DB
:10325000472EFBD745504124326E46504220336EF4
:10326000000E4320346E000E4420356E96EC2AF09A
:103270000009D8A468D1FF0E416E010E426E54C001
:1032800043F055C044F041504316425044163BC0F1
:1032900045F03CC046F043504526445046222E0E91
:1032A0004524D96E000E4620DA6EDF50476E475037
:1032B000506E516A544A552A3BC030F03CC031F040
:1032C00020EE1EF03B50D9263C50DA22DECF41F0F2
:1032D000DECF42F0DECF43F0DECF44F054C045F005
:1032E00055C046F0090E476ED89046324532472EFB
:1032F000FBD745504124326E46504220336E000EBB
:103300004320346E000E4420356E96EC2AF00009FE
:10331000D8A419D1FF0E416E010E426E54C043F085
:1033200055C044F041504316425044163BC045F04E
:103330003CC046F043504526445046222E0E4524BC
:10334000D96E000E4620DA6EDF50476E4750496E48
:10335000486A48505012495051123DB007D0FF0EF4
:1033600050144A6E0F0E51144B6E0FD050C041F0E6
:1033700051C042F0040E436ED89042324132432E87
:10338000FBD741C04AF042C04BF04AC04CF04BC0A2
:103390004DF05BD03BC030F03CC031F020EE1EF071
:1033A0003B50D9263C50DA22DECF41F0DECF42F04E
:1033B000DECF43F0DECF44F03DC045F03EC046F0E6
:1033C0003FC047F040C048F046C045F047C046F017
:1033D00048C047F0486A41504524326E425046206A
:1033E000336E43504720346E44504820356E96EC7F
:1033F0002AF00009D8A4A7D0FF0E416E010E426E3C
:103400003DC043F03EC044F0D8904336443641506E
:103410004316425044163BC045F03CC046F0435072
:103420004526445046222E0E4524526E000E46205C
:10343000536E52C0D9FF53C0DAFFDECF41F0DDCF6B
:1034400042F041C04CF042C04DF04E6A4F6A7BD012
:103450003BC030F03CC031F020EE1EF03B50D9268E
:103460003C50DA22DECF41F0DECF42F0DECF43F037
:10347000DECF44F03DC045F03EC046F03FC047F0CF
:1034800040C048F0080E05D0D89048324732463246
:103490004532E82EF9D741504524326E425046203D
:1034A000336E43504720346E44504820356E96ECBE
:1034B0002AF00009D8A447D0FF0E416E010E426EDB
:1034C0003DC043F03EC044F0D89043364436D890D7
:1034D0004336443641504316425044163BC045F0F3
:1034E0003CC046F043504526445046222E0E45240B
:1034F000526E000E4620536E52C0D9FF53C0DAFF01
:10350000FF0EDE144C6EFF0EDE144D6EFF0EDE1449
:103510004E6E0F0EDE144F6E16D03BC0D9FF3CC06E
:10352000DAFFDF50416E426A4250000AD8A45BD6EF
:103530004150010AD8B464D6030AD8B42BD7010A83
:10354000D8B486D750D64CC03BF04DC03CF04EC0EE
:103550003DF04FC03EF0120000019A519B11D8A4DB
:1035600002D0090E12009AC0D9FF9BC0DAFF000EEC
:10357000DE6E000EDD6EDCC0BAF0DDC0BBF01F0EEB
:103580009E17BA0E456E000E466E9C0E476E000EDC
:10359000486E9E51FE0B496E0EEC04F00001B76FB1
:1035A000B751D8A4A2D1A30ECE6F000ECF6FBA0E22
:1035B000866F000E876F9CC088F09DC089F0BDECBF
:1035C00023F00001B76FCCC0B8F0CDC0B9F0B7514F
:1035D000D8A406D0B851B911D8A402D0060EB76F3E
:1035E0009EC09FF01C0E9F17D8B4D3D0B751D8B44B
:1035F00012D0040EB719D8A408D0BA0E8A6F000EE4
:103600008B6F58EC28F00001B76F9E87CCC0B8F0E4
:10361000CDC0B9F012D020EE0BF0B851D926B95177
:10362000DA22DF509F6F110E9F17D8B402D0070E19
:1036300003D09EA502D0080EB76FB751D8B49EA78D
:10364000C1D020EE0EF0B851D926B951DA22000EC1
:10365000DE6E000EDE6E210EDE6E460EDD6E20EE9C
:1036600016F0B851D926B951DA22000EDE6E000EDE
:10367000DE6E210EDE6E460EDD6E20EE0BF0B851D2
:10368000D926B951DA22000EDF6E20EE1CF0B851B7
:10369000D926B951DA22DE6ADE6ADE6ADD6ABAC08C
:1036A00001F0BBC002F0B8C003F0B9C004F0B5EC43
:1036B0002BF001C0AFF002C0B0F003C0B1F004C005
:1036C000B2F0B8C001F0B9C002F0000E036E000EF7
:1036D000046E000E056E000E066E3EEC2EF000012C
:1036E00020EE04F0BA51D926BB51DA22010EDF6E6A
:1036F000AF51B011B111B211D8B464D020EE2AF09C
:10370000BA51D926BB51DA22DECFB3F0DECFB4F006
:10371000DECFB5F0DECFB6F0BAC056F0BBC057F082
:10372000AFC058F0B0C059F0B1C05AF0B2C05BF0B1
:1037300018EC23F00001B76FB751D8A443D0FF0EA7
:10374000AF259F6FFF0EB021A06FFF0EB121A16FBB
:10375000FF0EB221A26F20EE0AF0BA51D926BB515A
:10376000DA229FC0DEFFA0C0DEFFA1C0DEFFA2C044
:10377000DEFFBAC030F0BBC031F0B3C032F0B4C02D
:1037800033F0B5C034F0B6C035F096EC2AF0000145
:1037900018D0B751D8A416D020EE0BF0B851D926C6
:1037A000B951DA22DFA802D0040E0BD09EA30AD0B2
:1037B00020EE0BF0B851D926B951DA22DFA002D0A1
:1037C000070EB76FB751D8A420D09EB79E8B20EEBE
:1037D0002AF0BA51D926BB51DA2210EE1AF09A51CA
:1037E000E1269B51E222DECFE6FFDECFE6FFDECF11
:1037F000E6FFDECFE6FF20EE1EF09A51D9269B5160
:10380000DA22B8C0DEFFB9C0DDFFB751D8A46DD051
:1038100020EE04F09A51D9269B51DA229EC0DFFF98
:1038200020EE05F09A51D9269B51DA22000EDF6E68
:10383000BAC001F0BBC002F0B8C003F0B9C004F0D8
:10384000B5EC2BF0000120EE0EF09A51D9269B51D9
:10385000DA2201C0DEFF02C0DEFF03C0DEFF04C0CB
:10386000DEFF20EE1CF0B851D926B951DA2210EE55
:103870000AF09A51E1269B51E222DECFE6FFDECF2D
:10388000E6FFDECFE6FFDECFE6FF20EE06F09A5140
:10389000D9269B51DA22DE6ADE6ADE6ADD6A20EE14
:1038A00016F09A51D9269B51DA22DE6ADE6ADE6A68
:1038B000DD6A9AC0D9FF9BC0DAFFBAC0DEFFBBC089
:1038C000DDFF9AC0D9FF9BC0DAFF10EE06F0DE5094
:1038D000E126DD50E22220EE02F09A51D9269B51DA
:1038E000DA22E6CFDEFFE5CFDDFFB75112005850F8
:1038F00059105A105B10D8A42ED020EE0AF0565062
:10390000D9265750DA22DECF61F0DECF62F0DECF6B
:1039100063F0DECF64F00001615162116311641144
:10392000D8B410D020EE12F05650D9265750DA22D3
:10393000DE50615DDE506259DE506359DE506459DD
:10394000D8A05BD0010E616F000E626F000E636F36
:10395000000E646F52D056C03BF057C03CF058C0C8
:103960003DF059C03EF05AC03FF05BC040F0DBEC88
:1039700018F03BC069F03CC06AF03DC06BF03EC03F
:103980006CF000016C516B116A110DE1020E695D62
:10399000D8B009D0010E566E000E576E000E586E4C
:1039A000000E596E1200692910E16A290EE16B2997
:1039B0000CE16C29D8A409D069C056F06AC057F050
:1039C0006BC058F06CC059F0120020EE12F0565047
:1039D000D9265750DA22DE50695DDE506A59DE5032
:1039E0006B59DE506C59D8A0E7D758C061F059C068
:1039F00062F05AC063F05BC064F061C065F062C001
:103A000066F063C067F064C068F0010E6527000EC1
:103A100066236723682320EE12F05650D9265750AC
:103A2000DA22DE50655DDE506659DE506759DE50A1
:103A30006859D8A019D0020E656F000E666F000E8F
:103A4000676F000E686F6451631162110DE1020E21
:103A5000615DD8B009D0000E566E000E576E000E94
:103A6000586E000E596E120056C03BF057C03CF025
:103A700065C03DF066C03EF067C03FF068C040F0F2
:103A8000DBEC18F03BC069F03CC06AF03DC06BF065
:103A90003EC06CF0000169516A116B116C11D8B411
:103AA0001DD0692907E16A2905E16B2903E16C2929
:103AB000D8B482D769056A116B116C11D8B47CD760
:103AC00061516519A2E1625166199FE1635167195D
:103AD0009CE164516819D8B4BED797D756C03BF063
:103AE00057C03CF065C03DF066C03EF067C03FF097
:103AF00068C040F0FF0E416EFF0E426EFF0E436E37
:103B00000F0E446EC3EC14F00001606F6051D8A436
:103B10001ED0585059105A105B10D8B418D056C047
:103B20003BF057C03CF058C03DF059C03EF05AC081
:103B30003FF05BC040F065C041F066C042F067C036
:103B400043F068C044F0C3EC14F00001606F6051B2
:103B5000D8A431D020EE0AF05650D9265750DA2298
:103B600065C0DEFF66C0DEFF67C0DEFF68C0DEFF47
:103B700020EE0EF05650D9265750DA22DE2807E103
:103B8000DE2805E1DE2803E1DE28D8B424D020EECB
:103B90000EF05650D9265750DA22DE06000EDE5AB5
:103BA000DE5ADE5A20EE05F05650D9265750DA225A
:103BB000000EDB8010D06005D8B409D0010E656F0F
:103BC000000E666F000E676F000E686F04D06569A7
:103BD00066696769686965C056F066C057F067C076
:103BE00058F068C059F0120020EE04F05650D92663
:103BF0005750DA2258C0DEFF59C0DDFF20EE06F034
:103C00005650D9265750DA22DECF6DF0DECF6EF057
:103C1000DECF6FF0DECF70F000016D056E116F1119
:103C20007011D8B414D056C0D9FF57C0DAFF10EEC7
:103C300012F0DE50E126DD50E222E6506D5DE650E6
:103C40006E59E6506F59E6507059D8A002D0020E56
:103C500012006D516E116F117011D8A422D056C090
:103C6000D9FF57C0DAFFDECF60F0DDCF61F060C072
:103C7000D9FF61C0DAFF030EDE18D8A412D056C0F7
:103C8000D9FF57C0DAFF10EE22F0DE50E126DD50FA
:103C9000E222E6CF6DF0E6CF6EF0E6CF6FF0E6CF32
:103CA00070F06D516E116F117011D8A423D056C0F1
:103CB000D9FF57C0DAFF10EE08F0DE50E126DD50E4
:103CC000E222E650585CE6505958D8B0C0D756C0EA
:103CD000D9FF57C0DAFF10EE22F0DE50E126DD50AA
:103CE000E222E6CF69F0E6CF6AF0E6CF6BF0E6CFEE
:103CF0006CF079D056C0D9FF57C0DAFF10EE02F051
:103D0000DE50E126DD50E222E750606F6051100D79
:103D1000F3CF67F0F4CF68F046D056C0D9FF57C054
:103D2000DAFFDECF3BF0DDCF3CF06DC03DF06EC082
:103D30003EF06FC03FF070C040F0DBEC18F03BC0CD
:103D40006DF03CC06EF03DC06FF03EC070F0000101
:103D50006D2909E16E2907E16F2905E17029D8A4D1
:103D600002D0010E120070516F116E1104E1020EAB
:103D70006D5DD8A06CD756C0D9FF57C0DAFF10EEE2
:103D800012F0DE50E126DD50E222E6506D5DE65095
:103D90006E59E6506F59E6507059D8B058D76751F0
:103DA000585E6851595A6751585C68515958D8B093
:103DB000B4D756C0D9FF57C0DAFFDECF0DF0DDCF44
:103DC0000EF06DC00FF06EC010F06FC011F070C03B
:103DD00012F08EEC29F00DC069F00EC06AF00FC031
:103DE0006BF010C06CF020EE0AF05650D9265750F8
:103DF000DA226DC0DEFF6EC0DEFF6FC0DEFF70C076
:103E0000DEFF000169516A116B116C11D8B41FD724
:103E100058C060F059C061F0040E626FD8906133F1
:103E20006033622FFBD760516925636F61516A214E
:103E3000646F000E6B21656F000E6C21666F20EEC3
:103E40000EF05650D9265750DA2263C0DEFF64C008
:103E5000DEFF65C0DEFF66C0DEFF0F0E5814606F28
:103E6000000E5914616F050ED89060376137E82E47
:103E7000FBD756C0D9FF57C0DAFFDECF62F0DDCFE7
:103E800063F060516227615163232E0E6227000E9A
:103E9000632320EE12F05650D9265750DA2262C022
:103EA000DEFF63C0DDFF000E12000BC0D9FF0CC0A7
:103EB000DAFFDECF18F0DDCF19F002D0184A192A48
:103EC00018C0F6FF19C0F7FF0800F5502F0AD8B444
:103ED000F5D718C0F6FF19C0F7FF0800F5505C0AC7
:103EE000D8B4ECD720EE14F00950D9260A50DA22C3
:103EF000DECF1BF0DDCF1CF01BC001F01CC002F0B8
:103F0000000E046E200E036E000E066E0B0E056E84
:103F100028EC2EF0000E156E15C01DF01E6A1DC097
:103F200013F01EC014F0000E176E080E166E13501C
:103F300018240D6E145019200E6E0DC0F6FF0EC021
:103F4000F7FF0800F5CF1FF0134A142A200E1F6454
:103F5000A4D02F0E1F18D8B4A0D05C0E1F18D8B450
:103F60009CD02E0E1F18D8B406D016501D5C1750CA
:103F70001E58D8A018D0080E16181710D8A404D0B0
:103F80002E0E1F18D8B402D0060E1200000E1E6EA0
:103F9000080E1D6E000E176E0B0E166ED89015369D
:103FA000D8901536C4D77F0E1F6402D0030E1512A9
:103FB000800E1F6403D09F0E1F6406D0DF0E1F64A7
:103FC00043D0FD0E1F6040D0135018240D6E1450C6
:103FD00019200E6E0DC0F6FF0EC0F7FF0800F5CFDA
:103FE0001AF0134A142A3F0E1A6403D07E0E1A6484
:103FF00006D07F0E1A64C8D7FD0E1A60C5D7FF0E13
:104000000D6EFF0E0E6E16C00FF017C010F00D50A3
:104010000F260E5010220F501D5C10501E58D8B0A5
:10402000B3D71D501B24D96E1E501C20DA6E1FC042
:10403000DFFF1D4A1E2A1D501B24D96E1E501C2056
:10404000DA6E1AC0DFFF26D0010E016E080E026E76
:104050001FC003F0046A8CEC2DF001500210D8A4AC
:1040600093D7400E1F6405D05B0E1F6002D01582EF
:1040700009D0600E1F6406D07B0E1F6003D0158030
:10408000200E1F5E1D501B24D96E1E501C20DA6EA0
:104090001FC0DFFF1D4A1E2A4AD7135018240D6E79
:1040A000145019200E6E0BC0D9FF0CC0DAFF0DC0E2
:1040B000DEFF0EC0DDFF200E1F6404D0000E126E66
:1040C000000E03D0000E126E040E116E11C01FF010
:1040D0001D501E10D8B458D71BC0D9FF1CC0DAFF22
:1040E000E50EDE18D8A406D01BC0D9FF1CC0DAFF2D
:1040F000050EDF6E080E16181710D8A404D0D8903D
:104100001536D89015361550030BE806D8B41F881D
:1041100015500C0B040AD8B41F8620EE0BF01B5070
:10412000D9261C50DA221FC0DFFF000E1200126ECB
:104130001250D8B402D0010E12000001F2A303D035
:104140000001F2511200C2EC2EF00A0E1D6E04D0D6
:10415000FF0EABEC2EF01D061D50D8A4F9D7000EB3
:104160001A6E000E0B6E000E0C6E000E0D6E000E21
:104170000E6E000EB0EC2DF0E806D8A4C1D0AA0E49
:104180000B6E010E0C6E000E0D6E000E0E6E080E04
:10419000B0EC2DF0E806D8A467D0000E1D6E130E0B
:1041A0001D24D96EDA6A000EDA22FF0EABEC2EF077
:1041B000DF6E1D2A030E1D64F2D71504D8A4A0D00B
:1041C000AA0E1618D8A49CD0030E1C6EE80E1B6E07
:1041D00018D0000E0B6E000E0C6E000E0D6E400E11
:1041E0000E6EA90EB0EC2DF00009D8B40ED0030E5F
:1041F000116E980EE82EFED7112EFCD71B06D8A004
:104200001C061B501C10D8A4E4D71B501C10D8B49B
:1042100077D0000E0B6E000E0C6E000E0D6E000EB1
:104220000E6E3A0EB0EC2DF00009D8A469D0000E45
:104230001D6E130E1D24D96EDA6A000EDA22FF0EEF
:10424000ABEC2EF0DF6E1D2A030E1D64F2D713BCFB
:1042500004D0000E186E040E03D0000E186E0C0E63
:10426000176E17C01AF04CD0000E0B6E000E0C6EBD
:10427000000E0D6E000E0E6EA90EB0EC2DF0116E3C
:10428000020E116004D0020E1A6EA90E03D0010EA8
:104290001A6E010E196E030E1C6EE80E1B6E18D0FE
:1042A000000E0B6E000E0C6E000E0D6E000E0E6EEC
:1042B0001950B0EC2DF00009D8B40ED0030E116ED9
:1042C000980EE82EFED7112EFCD71B06D8A01C0690
:1042D0001B501C10D8A4E4D71B501C10D8B40ED00F
:1042E000000E0B6E020E0C6E000E0D6E000E0E6EAA
:1042F000100EB0EC2DF00009D8B402D0000E1A6EEA
:104300001AC0DFF0CFEC2EF01A50D8B419D7000144
:10431000F291BBEC2EF014D73AC01BF03BC01CF05E
:104320006CEC22F0446E4450D8A4D4D03AC0D9FFEB
:104330003BC0DAFF030EDE18D8A4B8D020EE05F09B
:104340003A50D9263B50DA22DE04D8A4AFD02E0E44
:104350003A24016E000E3B20026E000E046E000E29
:10436000036E020E066E000E056E28EC2EF022EE95
:104370002CF03A50D9263B50DA22550EDE6EAA0EAA
:10438000DD6E20EE2EF03A50D9263B50DA22520E46
:10439000DE6E520EDE6E610EDE6E410EDD6E22EEC0
:1043A00012F03A50D9263B50DA22720EDE6E720EAF
:1043B000DE6E410EDE6E610EDD6E20EE0EF03A50C6
:1043C000D9263B50DA2212EE16F03A50E1263B5045
:1043D000E222DECFE6FFDECFE6FFDECFE6FFDECF76
:1043E000E6FF20EE0AF03A50D9263B50DA2212EED0
:1043F0001AF03A50E1263B50E222DECFE6FFDECF54
:10440000E6FFDECFE6FFDECFE6FF20EE1AF03A5001
:10441000D9263B50DA22DECF3CF0DECF3DF0DECFB6
:104420003EF0DECF3FF0010E3C24406E000E3D20FA
:10443000416E000E3E20426E000E3F20436E20EE85
:104440002AF03A50D9263B50DA2240C0DEFF41C064
:10445000DEFF42C0DEFF43C0DEFF2E0E3A24116EA7
:10446000000E3B20126E20EE2AF03A50D9263B5027
:10447000DA22DECF13F0DECF14F0DECF15F0DECF80
:1044800016F0000E186E010E176E20EE01F03A5075
:10449000D9263B50DA22DF5090EC25F020EE05F0D3
:1044A0003A50D9263B50DA22000EDF6E000E116E14
:1044B000000E126E000E136E20EE01F03A50D92657
:1044C0003B50DA22DF5074EC12F00009D8B402D06D
:1044D000010E446E44501200000E296E20EE04F0CE
:1044E0001B50D9261C50DA22DF50D8B49FD020EEC2
:1044F0002AF01B50D9261C50DA22DECF2CF0DECF5A
:104500002DF0DECF2EF0DECF2FF02E0E1B24116EFD
:10451000000E1C20126E2CC013F02DC014F02EC003
:1045200015F02FC016F0000E186E010E176E20EE5B
:1045300001F01B50D9261C50DA22DF5090EC25F0F8
:104540000009D8B403D0010E296E70D020EE04F01B
:104550001B50D9261C50DA22000EDF6E20EE16F01A
:104560001B50D9261C50DA2210EE1EF01B50E126FB
:104570001C50E222E6CF21F0E6CF22F0E6CF23F076
:10458000E6CF24F021502C5C256E22502D58266E4B
:1045900023502E58276E24502F58286EDE50255C4D
:1045A000DE502658DE502758DE502858D8B03ED06E
:1045B00020EE03F01B50D9261C50DA22DF501D6E6E
:1045C0001D502A6E2B6A2B5004E1020E2A5CD8A0E3
:1045D0002DD020EE16F01B50D9261C50DA22DE50CA
:1045E0002C26DE502D22DE502E22DD502F222E0EC4
:1045F0001B24116E000E1C20126E2CC013F02DC057
:1046000014F02EC015F02FC016F0000E186E010E1B
:10461000176E20EE01F01B50D9261C50DA22DF5015
:1046200090EC25F02A06D8A02B06CDD729501200F1
:104630005B505A10591004E1020E585CD8A010D0FB
:1046400020EE12F05650D9265750DA22DE50585C30
:10465000DE505958DE505A58DE505B58D8A003D06F
:10466000020E000131D0000E0001606F74D056C000
:104670003BF057C03CF058C03DF059C03EF05AC026
:104680003FF05BC040F0DBEC18F03BC061F03CC099
:1046900062F03DC063F03EC064F000016151621100
:1046A00063116411D8B467D061056211631164119C
:1046B000D8B4D6D761290AE1622908E1632906E165
:1046C0006429D8A403D0010E606F55D056C03BF0CA
:1046D00057C03CF058C03DF059C03EF05AC03FF0C2
:1046E0005BC040F0000E416E000E426E000E436E45
:1046F000000E446EC3EC14F00001606F6051D8A44A
:104700003AD020EE0EF05650D9265750DA22DE2845
:1047100007E1DE2805E1DE2803E1DE28D8B413D066
:1047200020EE0EF05650D9265750DA22DE2A000E1F
:10473000DE22DE22DE2220EE05F05650D92657502A
:10474000DA22000EDB8061C058F062C059F063C00D
:104750005AF064C05BF020EE12F05650D926575044
:10476000DA22DE50585CDE505958DE505A58DE507E
:104770005B58D8A07CD76051120088C0F6FF89C072
:10478000F7FF0800F5502F0AD8B409D088C0F6FF0B
:1047900089C0F7FF0800F5505C0AD8A403D00001D7
:1047A000884B892B000120EE06F08651D9268751CF
:1047B000DA22DE6ADE6ADE6ADD6A88C0F6FF89C058
:1047C000F7FF200E0800F56017D086C056F087C0AE
:1047D00057F0000E596E000E586EF4EC1DF00001FB
:1047E0008D6F20EE12F08651D9268751DA22000E05
:1047F000DE6E000EDD6E62D086C009F087C00AF062
:10480000880E0B6E000E0C6E55EC1FF000018D6FC4
:104810008D51D8A453D086C080F087C081F090EC31
:1048200026F000018D6F20EE14F08651D9268751B5
:10483000DA2210EE0BF0DE50E126DD50E222E750E6
:104840008C6F8D51D8B408D0040E8D19D8B48CB5A6
:1048500035D0050E8D6F32D08CB530D020EE12F0F1
:104860008651D9268751DA22DECF8AF0DDCF8BF050
:1048700020EE0BF08A51D9268B51DA22DFA8E9D736
:1048800086C0D9FF87C0DAFFDECF01F0DDCF02F0AE
:104890008AC003F08BC004F0B5EC2BF0000120EED1
:1048A00006F08651D9268751DA2201C0DEFF02C008
:1048B000DEFF03C0DEFF04C0DEFF9ED78D51120075
:1048C00045C002F046C003F0E9EC2AF04B6E4B50B5
:1048D000D8A495D020EE04F04550D9264650DA22CF
:1048E000DFAA8DD045C0D9FF46C0DAFFDECF30F059
:1048F000DDCF31F020EE1AF04550D9264650DA22AD
:10490000DECF32F0DECF33F0DECF34F0DECF35F065
:1049100096EC2AF04B6E4B50D8A471D020EE1EF0CE
:104920004550D9264650DA22DECF4CF0DDCF4DF08F
:1049300020EE0BF04C50D9264D50DA22000EDB8AC7
:1049400020EE0AF04550D9264650DA2210EE1CF02F
:104950004C50E1264D50E222DECFE6FFDECFE6FFEF
:10496000DECFE6FFDECFE6FF4CC001F04DC002F027
:1049700020EE0EF04550D9264650DA22DECF03F065
:10498000DECF04F0DECF05F0DECF06F03EEC2EF0F9
:1049900020EE16F04C50D9264D50DA22000EDE6E75
:1049A000000EDE6E210EDE6E460EDD6E20EE12F083
:1049B0004C50D9264D50DA22000EDE6E000EDD6E10
:1049C00020EE04F04550D9264650DA22DF0EDF16DD
:1049D00045C0D9FF46C0DAFF10EE04F0DE50E126F4
:1049E000DD50E222010EE76E45C0D9FF46C0DAFF76
:1049F000DECF3AF0DDCF3BF08CEC21F04B6E4B502C
:104A0000120099EC2EF0200E526E010E536E1A0E0B
:104A1000546E080E556E010E566EEBEC29F000092F
:104A2000D8B418D0000E026E210E016E29EC29F0C8
:104A3000010E0CEC2EF0200E526E010E536E1A0E6B
:104A4000546E080E556E010E566EEBEC29F00009FF
:104A5000D8A4F1D7000E026E010E016E29EC29F0E8
:104A6000010E0CEC2EF0000E00019A6F010E9B6FF0
:104A7000100E9C6F080E9D6F130E9E6FACEC1AF01B
:104A80000009D8A446D0000E026E020E016E29EC79
:104A900029F0010E0CEC2EF001010A510B110C1142
:104AA0000D11D8B412D0000E00016D6F010E6E6FA3
:104AB0000AC16FF00BC170F00CC171F00DC172F042
:104AC00097EC0CF00009D8A414D0000E026E030E6F
:104AD000016E29EC29F0010E0CEC2EF005EC2DF006
:104AE000000E026E050E016E29EC29F0010E0CEC91
:104AF0002EF0000E4E6E010E4F6EEFEC2DF0000EFC
:104B0000026E060E016E29EC29F0010E0CEC2EF05F
:104B10001200000E026E000E016E29EC29F0120048
:104B20001A6E1A50D8A404D017501810D8A402D066
:104B3000040E12000001F2A102D0030E1200F2A531
:104B400002D0020E1200DFB708D0090ED89013363B
:104B5000143615361636E82EF9D717041810D8A4CF
:104B60001DD013C00BF014C00CF015C00DF016C012
:104B70000EF0180EB0EC2DF00009D8A44FD011C0E3
:104B800004F012C005F0FE0E066ED2EC2CF0000907
:104B9000D8B444D0000E186E000E3FD0DFC019F01C
:104BA000060E1916D8B409D017C00BF018C00CF0B7
:104BB0000D6A0E6A970EB0EC2DF013C00BF014C006
:104BC0000CF015C00DF016C00EF0190EB0EC2DF063
:104BD0000009D8A423D011C004F012C005F0FC0EC7
:104BE000066ED2EC2CF00009D8B409D0020E1226C1
:104BF0001706D8A0180617501810D8A4ECD7000E26
:104C0000046E000E056EFD0E066ED2EC2CF000094F
:104C1000D8A404D0000E186E010E176ECFEC2EF043
:104C200017501810D8B402D0010E1200000E120056
:104C300080C056F081C057F0000E596E000E586EBD
:104C4000F4EC1DF00001896F8951D8A461D0000EE9
:104C5000886F000E876F80C0D9FF81C0DAFFDECF7A
:104C600030F0DDCF31F020EE0EF08051D9268151A9
:104C7000DA22DECF32F0DECF33F0DECF34F0DECF1B
:104C800035F096EC2AF00001896F8951D8A440D004
:104C900020EE12F08051D9268151DA22DECF84F045
:104CA000DDCF85F084C0D9FF85C0DAFFE50EDE18C0
:104CB000D8B411D020EE12F08051D9268151DA22D9
:104CC000DECF84F0DDCF85F084C0D9FF85C0DAFF68
:104CD000DF50D8A40AD0874B882B8251871909E16D
:104CE00083518819D8B414D004D0000E886F000EF8
:104CF000876F80C06DF081C06EF0000E706F010E86
:104D00006F6FD8EC16F00001896F8951D8B4A3D722
:104D1000040E8919D8A402D0070E896F8951120098
:104D200080C056F081C057F0000E596E000E586ECC
:104D3000F4EC1DF00001856F8551D8B403D000015B
:104D40008551120080C0D9FF81C0DAFFDECF30F07C
:104D5000DDCF31F020EE0EF08051D9268151DA22DC
:104D6000DECF32F0DECF33F0DECF34F0DECF35F001
:104D700096EC2AF00001856F8551D8A4E0D720EE8B
:104D800012F08051D9268151DA22DECF83F0DDCFB7
:104D900084F083C0D9FF84C0DAFFDF50826F825174
:104DA000D8A403D0040E856FCAD720EE0BF0835130
:104DB000D9268451DA22DFB618D083C001F084C02E
:104DC00002F020EE14F08051D9268151DA22DECF94
:104DD00003F0DDCF04F0000E066E0B0E056E9FECA7
:104DE0002CF001500210D8B4AAD780C06DF081C059
:104DF0006EF0000E0001706F000E6F6FD8EC16F0B1
:104E00000001856F8551D8A49AD79CD720EE04F075
:104E10003B50D9263C50DA22000EDF6E20EE2AF0FD
:104E20003B50D9263C50DA22FF0EDE6EFF0EDE6EBE
:104E3000FF0EDE6EFF0EDD6E3BC030F03CC031F089
:104E40003DC032F03EC033F03FC034F040C035F0DA
:104E500096EC2AF00009D8B402D0030E120022EE1C
:104E60002CF03B50D9263C50DA22550EDE1804E1D6
:104E7000AA0EDE18D8B402D0020E120020EE64F0A2
:104E80003B50D9263C50DA22FF0EDE14416EFF0E55
:104E9000DE14426EFF0EDE14436E000EDE14446E0E
:104EA000460E41180AE1410E421807E1540E43181C
:104EB0004410D8A402D0000E120020EE80F03B5027
:104EC000D9263C50DA22FF0EDE14416EFF0EDE14AE
:104ED000426EFF0EDE14436E000EDE14446E460E6C
:104EE000411808E1410E421805E1540E43184410E0
:104EF000D8B4E1D7010E120009680A6801C0D9FFD1
:104F000002C0DAFFDE50DE10D8B45BD001C0D9FF9A
:104F100002C0DAFFDECF0DF0DDCF0EF002D00D4A79
:104F20000E2A0DC0F6FF0EC0F7FF200E0800F56434
:104F300009D00DC0F6FF0EC0F7FF0800F5503A0A81
:104F4000D8A4EDD70DC0F6FF0EC0F7FF0800F5504E
:104F50003A0AD8A43BD001C0D9FF02C0DAFFDECFA5
:104F600007F0DDCF08F007C0F6FF08C0F7FF080024
:104F7000F5CF03F0D00E03240B6E0C6AFF0E0C224B
:104F8000074A082A0C501DE10A0E0B5CD8B019D054
:104F90000D50071816E10E500818D8A412D00B5067
:104FA0000C10D8A40ED00BC009F00CC00AF00D4AAA
:104FB0000E2A01C0D9FF02C0DAFF0DC0DEFF0EC00D
:104FC000DDFF09C001F00AC002F01200000E0A6EF7
:104FD000000E096EF6D799EC2EF0200E526E010EDF
:104FE000536E1A0E546E080E556E010E566EEBEC93
:104FF00029F00009D8B418D0000E026E210E016EFF
:1050000029EC29F0010E0CEC2EF0200E526E010E50
:10501000536E1A0E546E080E556E010E566EEBEC62
:1050200029F00009D8A4F1D7000E026E010E016E1E
:1050300029EC29F0010E0CEC2EF0000E00019A6F05
:10504000010E9B6F100E9C6F080E9D6F130E9E6FCE
:10505000ACEC1AF00009D8A424D0000E026E020EA7
:10506000016E29EC29F0010E0CEC2EF043EC2AF035
:10507000000E026E050E016E29EC29F0010E0CECFB
:105080002EF0000E4E6E010E4F6EEFEC2DF0000E66
:10509000026E060E016E29EC29F0010E0CEC2EF0CA
:1050A0001200000E026E000E016E29EC29F01200B3
:1050B0008AC080F08BC081F0000E0001836F010E6A
:1050C000826F18EC26F000018C6F8C51D8A458D058
:1050D0008AC0D9FF8BC0DAFFDECF30F0DDCF31F0F0
:1050E00020EE0EF08A51D9268B51DA22DECF32F033
:1050F000DECF33F0DECF34F0DECF35F096EC2AF0A1
:1051000000018C6F8C51D8A43BD020EE12F08A5154
:10511000D9268B51DA22DECF01F0DDCF02F0000E6E
:10512000046E000E036E000E066E200E056E28EC57
:105130002EF0000120EE12F08A51D9268B51DA228E
:10514000DECF01F0DDCF02F020EE14F08A51D92637
:105150008B51DA22DECF03F0DDCF04F0000E066EB5
:105160000B0E056EF4EC2BF08AC0D9FF8BC0DAFF72
:1051700010EE04F0DE50E126DD50E222010EE76E73
:1051800000018C511200196E1950D8A404D0175088
:105190001810D8A402D0040E12000001F2A102D00F
:1051A000030E1200DFB708D0090ED890133614365C
:1051B00015361636E82EF9D7185008E1020E175C9E
:1051C000D8B004D0000E1B6E110E03D0000E1B6E63
:1051D000120E1A6E1AC01CF013C00BF014C00CF0A3
:1051E00015C00DF016C00EF01C50B0EC2DF00009EB
:1051F000D8A425D011C002F012C003F0020E056E33
:10520000000E046E69EC2CF00009D8B409D0020E2F
:1052100012261706D8A0180617501810D8A4EAD7D7
:10522000120E1C18D8A40BD0000E0B6E000E0C6EC4
:10523000000E0D6E000E0E6E0C0EB0EC2DF0CFECCD
:105240002EF017501810D8B402D0010E1200000E24
:105250001200000E8C6E000E956E000E0F015E6F38
:10526000000E8D6E000E966E000E5F6F20EEE8F061
:1052700010EE04F0090EDBCFE3FFE806FCE2210E9E
:1052800001180210D8B410D0370E01180210D8B48B
:105290000BD0040E0124D96E000E0220DA6EDF500E
:1052A0008C6E010E8D6E1200210E01180210D8A412
:1052B00005D00AC08CFF020E8D6E1200E70E011899
:1052C00007E1030E0218D8A403D0000E8D6E120061
:1052D00004C08CFF010E8D6E030E036E980EE82E37
:1052E000FED7032EFCD7000E8D6E0DC08CFF020E74
:1052F0008D6E030E036E980EE82EFED7032EFCD79C
:10530000000E8D6E0AC08CFF040E8D6E030E036EB0
:10531000980EE82EFED7032EFCD7D7D7020E0F5ECD
:10532000000E105A115A125A20EE12F00D50D926C2
:105330000E50DA22FE0EDE24136EFF0EDE20146EF7
:10534000FF0EDE20156EFF0EDE20166E13500F5C72
:10535000145010581550115816501258D8A009D092
:10536000000E0D6E000E0E6E000E0F6E000E106E13
:10537000120020EE26F00D50D9260E50DA22DECF94
:1053800013F0DECF14F0DECF15F0DECF16F020EEF6
:1053900002F00D50D9260E50DA22DF50176E17504A
:1053A000016E026A036A046A0FC005F010C006F0BD
:1053B00011C007F012C008F061EC2DF01350012469
:1053C0000D6E145002200E6E155003200F6E1650F5
:1053D0000420106E120054C05AF055C05BF05A0EF3
:1053E000016E000E026E7CEC27F001C05CF002C082
:1053F0005DF05DAE02D00B0E1200D8905C34D96E19
:105400005D34DA6EDC0ED926000EDA22DECF58F0DB
:10541000DDCF59F058505910D8B406D058C0D9FF34
:1054200059C0DAFF000EDF6E52505310D8B406D0C8
:1054300052C0D9FF53C0DAFF000EDF6ED8905C3443
:10544000D96E5D34DA6EDC0ED926000EDA2252C037
:10545000DEFF53C0DDFF52505310D8B403D05604C2
:10546000D8B402D0000E1200520E456E000E466EE9
:10547000540E476E000E486E000E496E0EEC04F09E
:10548000576E57501200000E026E040E016E29EC8A
:1054900029F0000E0001816F000E806F3FD0000EDA
:1054A000566E010E576EE20E586E000E596E000ECB
:1054B0005B6E020E5A6EE40E5C6E000E5D6E9EEC2C
:1054C0000FF0E2C086F086C0D4F00001D56BD4C0E6
:1054D00080FF000E836F000E826F824B832B83BF91
:1054E000FCD7835104E1030E825DD8A0F6D7E3C058
:1054F00086F086C0D4F0D56BD4C080FF000E856FD7
:10550000000E846F844B852B85BFFCD7855104E149
:10551000020E845DD8A0F6D7804B812B300E801907
:10552000BEE1750E8119D8B41200B9D7000E3A6EDB
:1055300020EE2AF03050D9263150DA223250DE18CF
:105540000AE13350DE1807E13450DE1804E135502B
:10555000DE18D8B43CD030C01BF031C01CF06CEC6D
:1055600022F03A6E3A50D8A432D02E0E3024116E6A
:10557000000E3120126E32C013F033C014F034C06C
:1055800015F035C016F0000E186E010E176E20EEE5
:1055900001F03050D9263150DA22DF50C3EC28F028
:1055A0000009D8B406D03268336834683568010E13
:1055B0003A6E20EE2AF03050D9263150DA2232C02D
:1055C000DEFF33C0DEFF34C0DEFF35C0DEFF3A5001
:1055D000120002C008F003C009F008500910D8B446
:1055E0003ED008C0D9FF09C0DAFFDE50DE10D8B4C3
:1055F00036D008C0D9FF09C0DAFFDECF04F0DDCF16
:1056000005F004C0D9FF05C0DAFFDF50D8B427D0B9
:1056100020EE02F00850D9260950DA2208C0E1FF36
:1056200009C0E2FF00EE06F0E650E926E550EA2266
:10563000DE50EE1814E1DE50EE18D8A410D008C0E9
:10564000D9FF09C0DAFF10EE01F0DE50E126DD508F
:10565000E222E75090EC2EF0046E04A002D0090E76
:105660001200000E1200000E096E000E0A6E000EEF
:105670000B6E000E0C6E0550061007100810D8B403
:105680002AD0010E0D6E06D0D890053606360736A4
:1056900008360D2A08AEF8D7D89009360A360B36E8
:1056A0000C360550015C065002580750035808504C
:1056B0000458D8A009D00550015E0650025A075080
:1056C000035A0850045A0980D8900832073206322B
:1056D00005320D2EE1D709C001F00AC002F00BC05F
:1056E00003F00CC004F012000A6E0C0E0A18D8B4B5
:1056F00009D0CFEC2EF076EC2EF00009D8A402D021
:10570000FF0E12000A504009ABEC2EF00750ABEC34
:105710002EF00650ABEC2EF00550ABEC2EF0045002
:10572000ABEC2EF0010E096E0A50D8A402D0950EF3
:10573000096E080E0A18D8A402D0870E096E095007
:10574000ABEC2EF00C0E0A18D8A403D0FF0EABEC75
:105750002EF00A0E096EFF0EABEC2EF0086E08AEAE
:1057600002D0092EF8D7085012001A0E0324D96E61
:10577000000E0420DA6EDECF05F0DDCF06F005C0A6
:105780000BF006C00CF00D6A0E6A01C0D9FF02C012
:10579000DAFF030EDE18D8A41ED0140E0324D96E2F
:1057A000000E0420DA6EDECF05F0DDCF06F00550E6
:1057B000076E0650086E096A0A6A08C00AF007C038
:1057C00009F0086A076A07500B1208500C120950BA
:1057D0000D120A500E120BC001F00CC002F00DC0E9
:1057E00003F00EC004F0120001C007F002C008F080
:1057F00003C009F004C00AF018D009C0D9FF0AC0DC
:10580000DAFF07C0E1FF08C0E2FFDECFE6FFDDCF31
:10581000E5FF020E0726000E0822020E0926000EE2
:105820000A22020E055E000E065A0650E6E1020E3E
:10583000055CD8A00FD0E1D709C0D9FF0AC0DAFFB4
:1058400007C0E1FF08C0E2FFDFCFE7FF094A0A2AED
:10585000074A082A0506D8A006060528EDE106280D
:10586000D8B41200E9D799EC2EF0B3EC2EF0530E19
:10587000D36E140EC06E000EC16E000E896E000E47
:10588000926E000E0F015B6F070E946E040E5D6F3B
:10589000390EC26EF28EF28C9D8C000E026E000EDE
:1058A000016E29EC29F082CFE0F00001E16B030EDC
:1058B000E015E06FE16B020EE019E111D8B401ECE4
:1058C00025F00001E005E111D8A4E7D7EBEC27F0C3
:1058D000E4D7070E076ED00E066E0ED0FF0EABECAF
:1058E0002EF0086E0828D8A40BD0420EE82EFED762
:1058F00000D00606D8A0070606500710D8A4EED799
:10590000FE0E0818D8B402D0000E1200FF0EABEC49
:105910002EF002C0D9FF03C0DAFFDF6E024A032A6D
:105920000406D8A0050604500510D8A4EFD7FF0E32
:10593000ABEC2EF0FF0EABEC2EF0010E120001C00E
:1059400009F002C00AF003C00BF004C00CF0000E16
:105950000E6E000E0D6E0506D8A00606052803E1A2
:105960000628D8B41AD009C0D9FF0AC0DAFF094AFC
:105970000A2ADF50076E0BC0D9FF0CC0DAFF0B4AB2
:105980000C2ADF50086E0850075C0D6E0E6AD8A016
:105990000E060D500E10D8B4DED70DC001F00EC0AB
:1059A00002F01200D1EC2DF00009D8A402D0000EB4
:1059B00012000650ABEC2EF0FD0E0618D8B423D022
:1059C000020E086E000E076E04C0D9FF05C0DAFF94
:1059D000DF50ABEC2EF0044A052A0706D8A00806D3
:1059E00007500810D8A4F0D7FF0EABEC2EF0FF0E36
:1059F000ABEC2EF0FF0EABEC2EF0096E09501F0B36
:105A0000050AD8A4D4D7010E1200000E026E040EAF
:105A1000016E29EC29F0000E0001946F000E936FC7
:105A20001DD0C282C4CF95F0966B95C0E2F095C0B0
:105A3000E3F0000E6D6F010E6E6FE20E6F6F000EE1
:105A4000706F000E726F020E716FE60E736F000EB4
:105A5000746FE5EC08F00001934B942B300E931912
:105A6000E0E1750E9419D8B41200DBD7920EF66EF1
:105A70005D0EF76E000EF86E00EEE8F010EE0BF023
:105A80000900F5CFEEFFE550E150FAE101EE20F01C
:105A900012EE2EF0EE6AE550E150FCE1E250FAE140
:105AA00001EE00F0200EEE6AE806FDE100EED0F017
:105AB000180EEE6AE806FDE1000EF86E000133EF05
:105AC0002CF0000E096E000E0A6E000E0B6E000E1A
:105AD0000C6E01A008D00550092606500A22075076
:105AE0000B2208500C22D8900536063607360836A9
:105AF000D8900432033202320132015002100310F6
:105B00000410D8A4E6D709C001F00AC002F00BC007
:105B100003F00CC004F0120002D0014A022A01C0B6
:105B2000F6FF02C0F7FF0800F5500009D8B40FD007
:105B300001C0F6FF02C0F7FF0800F550056E066AC7
:105B400003500518EAE104500618D8A4E6D701C0AE
:105B5000F6FF02C0F7FF0800F550016E026A12005E
:105B60000F6E0FAE12D00F9E000E046E000E056E6B
:105B7000000E066E000E076E370E74EC2BF0106EE2
:105B8000010E106402D0105012000BC004F00CC0C3
:105B900005F00DC006F00EC007F00F5074EC2BF0AE
:105BA0001200130E036E880E026E0DD0FF0EABECCA
:105BB0002EF0FF0AD8B40BD0420EE82EFED700D04C
:105BC0000206D8A0030602500310D8A4EFD7025053
:105BD0000310D8B402D0010E1200000E12004EC005
:105BE00045F04FC046F060EC24F0506E5050D8A401
:105BF00012004EC002F04FC003F0E9EC2AF0506EE4
:105C00005050D8A412004EC0D9FF4FC0DAFF000E8A
:105C1000DE6E000EDD6E1200046E000E056E08D002
:105C2000340E016EF20EE82EFED7012EFCD7052AA7
:105C30000550016E026A0450320D0150F35CF450BD
:105C4000800A036E0250800A0358D8A01200E8D7D9
:105C500001C007F002C008F008D007C0D9FF08C093
:105C6000DAFF03C0DFFF074A082A0506D8A00606A8
:105C70000528F3E10628D8B41200EFD720EE1AF079
:105C80000150D9260250DA2203C0DEFF04C0DDFF36
:105C900020EE14F00150D9260250DA2205C0DEFFB2
:105CA00006C0DDFF120001500302F3CF05F0F4CF70
:105CB00006F001500402F350062602500302F3508E
:105CC000062605C001F006C002F01200040E8A6E1E
:105CD000000E8B6EF10E936EC70E946EC40E0F0104
:105CE0005D6F300E5C6F8568F19E12008A94FF0E26
:105CF000ABEC2EF0D1EC2DF00009D8B402D0010E9F
:105D00001200CFEC2EF0000E1200080EB86E900EAE
:105D1000AB6E240EAC6E400EAF6E030EB06E120072
:105D2000016E0150D8B402D0010E12000001F251F0
:105D3000120066EC2EF0A2EC2EF0C2EC2EF085ECF8
:105D40002EF01200600ED36E000ED26E000E9B6E0F
:105D5000000EB56E1200016EC69E01C0C9FFC7A03D
:105D6000FED7C9501200000E896E000E926E000E12
:105D70000F015B6F1200400EC76E200EC66E000E44
:105D8000C86E1200400EC76E220EC66E000EC86EA0
:0D5D900012007E306D79335B5F707F730110
:0A5D9E008A84FF0EABEC2EF0120019
:020000040020DA
:08000000FFFFFFFFFFFFFFFF00
:020000040030CA
:0E00000000285F3CFFD185FF0FC00FE00F40CE
:00000001FF
